8=FIXT.1.1|9=107|35=A|34=1|49=NEGFIXFIX1|52=20161010-08:45:23.762|56=FGW|98=0|108=60|141=Y|553=NEGFIXFIX1|554=mit123|1137=9|10=028|8=FIXT.1.1|9=95|35=A|49=FGW|56=NEGFIXFIX1|34=1|52=20161010-08:45:23.829|1128=9|98=0|108=60|141=Y|1137=9|1409=0|10=005|8=FIXT.1.1|9=142|35=q|34=2|49=NEGFIXFIX1|56=FGW|52=20161010-08:45:24.907|11=1476089124885|530=7|60=20161010-09:45:24.879|1461=1|1462=NEGFIXFIX1|1463=D|1464=76|10=117|8=FIXT.1.1|9=123|35=r|49=FGW|56=NEGFIXFIX1|34=2|52=20161010-08:45:24.985|1128=9|1369=O132zNg_19|11=1476089124885|1180=1|30001=1|530=7|531=7|10=143|8=FIXT.1.1|9=114|35=Z|34=3|49=NEGFIXFIX1|56=FGW|52=20161010-08:45:25.018|1166=1476089125025|298=4|1461=1|1462=NEGFIX|1463=D|1464=1|10=141|8=FIXT.1.1|9=165|35=b|49=FGW|56=NEGFIXFIX1|34=3|52=20161010-08:45:25.091|1128=9|117=1476089125025|298=4|297=5|300=2002|58=User not registered to mass cancel interest for firm|1180=1|10=033|8=FIXT.1.1|9=192|35=D|34=4|49=NEGFIXFIX1|56=FGW|52=20161010-08:45:25.093|11=1476089125097|48=8033001|22=8|40=2|54=1|38=500|1138=500|44=25|581=1|528=A|60=20161010-09:45:25.089|453=1|448=NEGFIXFIX1|447=D|452=76|10=026|8=FIXT.1.1|9=300|35=8|49=FGW|56=NEGFIXFIX1|34=4|52=20161010-08:45:25.161|1128=9|17=E0SwGXhF2Q7r|11=1476089125097|278=O0SwGcXHc6Zt|37=O0SwGcXHc6Zt|150=0|39=0|151=500|14=0|48=8033001|22=8|453=1|448=NEGFIXFIX1|447=D|452=76|40=2|59=0|54=1|38=500|1138=500|44=25|528=A|60=20161010-08:45:25.159|1180=1|30001=1|581=1|20000=2|10=015|8=FIXT.1.1|9=180|35=D|34=5|49=NEGFIXFIX1|56=FGW|52=20161010-08:45:25.233|48=8033001|22=8|40=2|59=0|54=1|38=500|1138=500|44=25|581=1|528=A|60=20161010-09:45:25.233|453=1|448=NEGFIXFIX1|447=D|452=76|10=156|8=FIXT.1.1|9=111|35=3|49=FGW|56=NEGFIXFIX1|34=5|52=20161010-08:45:25.293|1128=9|45=5|58=Required tag missing|371=11|372=D|373=1|10=248|8=FIXT.1.1|9=205|35=D|34=6|49=NEGFIXFIX1|56=FGW|52=20161010-08:45:25.281|11=ABCDEFGHIJKLMNOPQRSTU|48=8033001|22=8|40=2|59=0|54=1|38=500|1138=500|44=25|581=1|528=A|60=20161010-09:45:25.278|453=1|448=NEGFIXFIX1|447=D|452=76|10=110|8=FIXT.1.1|9=137|35=3|49=FGW|56=NEGFIXFIX1|34=6|52=20161010-08:45:25.366|1128=9|45=6|58=Value is incorrect (out of range) for this tag|371=11|372=D|373=5|10=184|8=FIXT.1.1|9=184|35=D|34=7|49=NEGFIXFIX1|56=FGW|52=20161010-08:45:26.360|11=|48=8033001|22=8|40=2|59=0|54=1|38=500|1138=500|44=25|581=1|528=A|60=20161010-09:45:26.345|453=1|448=NEGFIXFIX1|447=D|452=76|10=073|8=FIXT.1.1|9=120|35=3|49=FGW|56=NEGFIXFIX1|34=7|52=20161010-08:45:26.398|1128=9|45=7|58=Tag specified without a value|371=11|372=D|373=4|10=041|8=FIXT.1.1|9=185|35=D|34=8|49=NEGFIXFIX1|56=FGW|52=20161010-08:45:26.367|11=	|48=8033001|22=8|40=2|59=0|54=1|38=500|1138=500|44=25|581=1|528=A|60=20161010-09:45:26.362|453=1|448=NEGFIXFIX1|447=D|452=76|10=090|8=FIXT.1.1|9=122|35=3|49=FGW|56=NEGFIXFIX1|34=8|52=20161010-08:45:26.431|1128=9|45=8|58=Incorrect data format for value|371=11|372=D|373=6|10=249|8=FIXT.1.1|9=194|35=D|34=9|49=NEGFIXFIX1|56=FGW|52=20161010-08:45:26.395|11=one|11=two|48=8033001|22=8|40=2|59=0|54=1|38=500|1138=500|44=25|581=1|528=A|60=20161010-09:45:26.391|453=1|448=NEGFIXFIX1|447=D|452=76|10=145|8=FIXT.1.1|9=118|35=3|49=FGW|56=NEGFIXFIX1|34=9|52=20161010-08:45:26.460|1128=9|45=9|58=Tag appears more than once|371=11|372=D|373=13|10=011|8=FIXT.1.1|9=143|35=q|34=10|49=NEGFIXFIX1|56=FGW|52=20161010-08:45:26.914|11=1476089126927|530=7|60=20161010-09:45:26.914|1461=1|1462=NEGFIXFIX1|1463=D|1464=76|10=156|8=FIXT.1.1|9=124|35=r|49=FGW|56=NEGFIXFIX1|34=10|52=20161010-08:45:26.958|1128=9|1369=O132zNg_21|11=1476089126927|1180=1|30001=1|530=7|531=7|10=185|8=FIXT.1.1|9=314|35=8|49=FGW|56=NEGFIXFIX1|34=11|52=20161010-08:45:26.959|1128=9|17=E0SwGXhF2Q83|11=1476089126927|278=O0SwGcXHc6Zt|41=1476089125097|37=O0SwGcXHc6Zt|150=4|39=4|151=0|14=0|48=8033001|22=8|453=1|448=NEGFIXFIX1|447=D|452=76|40=2|59=0|54=1|38=500|1138=0|44=25|528=A|60=20161010-08:45:26.956|1180=1|30001=1|581=1|20000=2|10=169|8=FIXT.1.1|9=115|35=Z|34=11|49=NEGFIXFIX1|56=FGW|52=20161010-08:45:26.961|1166=1476089126975|298=4|1461=1|1462=NEGFIX|1463=D|1464=1|10=212|8=FIXT.1.1|9=166|35=b|49=FGW|56=NEGFIXFIX1|34=12|52=20161010-08:45:27.021|1128=9|117=1476089126975|298=4|297=5|300=2002|58=User not registered to mass cancel interest for firm|1180=1|10=092|8=FIXT.1.1|9=164|35=D|34=12|49=NEGFIXFIX1|56=FGW|52=20161010-08:45:27.024|11=1476089127039|48=8033001|22=8|40=2|59=0|54=1|38=500|1138=500|44=25|581=1|528=A|60=20161010-09:45:27.024|10=236|8=FIXT.1.1|9=114|35=3|49=FGW|56=NEGFIXFIX1|34=13|52=20161010-08:45:27.082|1128=9|45=12|58=Required tag missing|371=453|372=D|373=1|10=144|8=FIXT.1.1|9=192|35=D|34=13|49=NEGFIXFIX1|56=FGW|52=20161010-08:45:27.068|11=1476089127077|48=8033001|448=NEGFIXFIX1|447=D|452=76|22=8|40=2|59=0|54=1|38=500|1138=500|44=25|581=1|528=A|60=20161010-09:45:27.061|10=023|8=FIXT.1.1|9=131|35=3|49=FGW|56=NEGFIXFIX1|34=14|52=20161010-08:45:27.132|1128=9|45=13|58=Tag not defined for this message type|371=448|372=D|373=2|10=125|8=FIXT.1.1|9=197|35=D|34=14|49=NEGFIXFIX1|56=FGW|52=20161010-08:45:27.133|11=1476089127134|48=8033001|453=|448=NEGFIXFIX1|447=D|452=76|22=8|40=2|59=0|54=1|38=500|1138=500|44=25|581=1|528=A|60=20161010-09:45:27.117|10=236|8=FIXT.1.1|9=123|35=3|49=FGW|56=NEGFIXFIX1|34=15|52=20161010-08:45:27.178|1128=9|45=14|58=Tag specified without a value|371=453|372=D|373=4|10=192|8=FIXT.1.1|9=200|35=D|34=15|49=NEGFIXFIX1|56=FGW|52=20161010-08:45:27.205|11=1476089127208|48=8033001|22=8|40=2|59=0|54=1|38=500|1138=500|44=25|581=1|528=A|60=20161010-09:45:27.190|453=one|448=NEGFIXFIX1|447=D|452=76|10=035|8=FIXT.1.1|9=125|35=3|49=FGW|56=NEGFIXFIX1|34=16|52=20161010-08:45:27.243|1128=9|45=15|58=Incorrect data format for value|371=453|372=D|373=6|10=149|8=FIXT.1.1|9=198|35=D|34=16|49=NEGFIXFIX1|56=FGW|52=20161010-08:45:27.268|11=1476089127288|48=8033001|22=8|40=2|59=0|54=1|38=500|1138=500|453=2|448=NEGFIXFIX1|447=D|452=76|44=25|581=1|528=A|60=20161010-09:45:27.268|10=059|8=FIXT.1.1|9=130|35=3|49=FGW|56=NEGFIXFIX1|34=17|52=20161010-08:45:27.312|1128=9|45=16|58=Tag not defined for this message type|371=44|372=D|373=2|10=074|8=FIXT.1.1|9=198|35=D|34=17|49=NEGFIXFIX1|56=FGW|52=20161010-08:45:28.341|11=1476089128348|48=8033001|22=8|40=2|59=0|54=1|38=500|1138=500|453=3|448=NEGFIXFIX1|447=D|452=76|44=25|581=1|528=A|60=20161010-09:45:28.326|10=048|8=FIXT.1.1|9=130|35=3|49=FGW|56=NEGFIXFIX1|34=18|52=20161010-08:45:28.382|1128=9|45=17|58=Tag not defined for this message type|371=44|372=D|373=2|10=084|8=FIXT.1.1|9=242|35=D|34=18|49=NEGFIXFIX1|56=FGW|52=20161010-08:45:29.385|11=1476089129403|48=8033001|22=8|40=2|59=0|54=1|38=500|1138=500|453=3|448=NEGFIXFIX1|447=D|452=76|448=NEG1|447=D|452=12|448=NEG2|447=D|452=12|44=25|581=1|528=A|60=20161010-09:45:29.378|10=190|8=FIXT.1.1|9=140|35=3|49=FGW|56=NEGFIXFIX1|34=19|52=20161010-08:45:29.449|1128=9|372=D|45=18|371=453|373=5|58=Value is incorrect (out of range) for this tag|10=089|8=FIXT.1.1|9=198|35=D|34=19|49=NEGFIXFIX1|56=FGW|52=20161010-08:45:29.432|11=1476089129458|48=8033001|22=8|40=2|59=0|54=1|38=500|1138=500|453=0|448=NEGFIXFIX1|447=D|452=76|44=25|581=1|528=A|60=20161010-09:45:29.432|10=051|8=FIXT.1.1|9=131|35=3|49=FGW|56=NEGFIXFIX1|34=20|52=20161010-08:45:29.494|1128=9|45=19|58=Tag not defined for this message type|371=448|372=D|373=2|10=141|8=FIXT.1.1|9=232|35=D|34=20|49=NEGFIXFIX1|56=FGW|52=20161010-08:45:30.524|11=1476089130552|48=8033001|22=8|40=2|59=0|54=1|38=500|1138=500|453=1|448=NEGFIXFIX1|447=D|452=76|44=25|581=1|528=A|60=20161010-09:45:30.523|453=1|448=NEGFIXFIX1|447=D|452=76|10=048|8=FIXT.1.1|9=121|35=3|49=FGW|56=NEGFIXFIX1|34=21|52=20161010-08:45:30.579|1128=9|45=20|58=Tag appears more than once|371=453|372=D|373=13|10=152|8=FIXT.1.1|9=143|35=q|34=21|49=NEGFIXFIX1|56=FGW|52=20161010-08:45:30.882|11=1476089130912|530=7|60=20161010-09:45:30.882|1461=1|1462=NEGFIXFIX1|1463=D|1464=76|10=145|8=FIXT.1.1|9=124|35=r|49=FGW|56=NEGFIXFIX1|34=22|52=20161010-08:45:30.925|1128=9|1369=O132zNg_27|11=1476089130912|1180=1|30001=1|530=7|531=7|10=172|8=FIXT.1.1|9=115|35=Z|34=22|49=NEGFIXFIX1|56=FGW|52=20161010-08:45:30.913|1166=1476089130944|298=4|1461=1|1462=NEGFIX|1463=D|1464=1|10=197|8=FIXT.1.1|9=166|35=b|49=FGW|56=NEGFIXFIX1|34=23|52=20161010-08:45:30.978|1128=9|117=1476089130944|298=4|297=5|300=2002|58=User not registered to mass cancel interest for firm|1180=1|10=100|8=FIXT.1.1|9=183|35=D|34=23|49=NEGFIXFIX1|56=FGW|52=20161010-08:45:30.961|11=1476089130993|48=8033001|22=8|40=2|59=0|54=1|38=500|1138=500|44=25|581=1|528=A|60=20161010-09:45:30.961|453=1|447=D|452=76|10=108|8=FIXT.1.1|9=130|35=3|49=FGW|56=NEGFIXFIX1|34=24|52=20161010-08:45:31.018|1128=9|45=23|58=Repeating group fields out of order|371=447|372=D|373=15|10=057|8=FIXT.1.1|9=188|35=D|34=24|49=NEGFIXFIX1|56=FGW|52=20161010-08:45:31.000|11=1476089131026|48=8033001|22=8|40=2|59=0|54=1|38=500|1138=500|44=25|581=1|528=A|60=20161010-09:45:30.993|453=1|448=|447=D|452=76|10=058|8=FIXT.1.1|9=123|35=3|49=FGW|56=NEGFIXFIX1|34=25|52=20161010-08:45:31.065|1128=9|45=24|58=Tag specified without a value|371=448|372=D|373=4|10=188|8=FIXT.1.1|9=189|35=D|34=25|49=NEGFIXFIX1|56=FGW|52=20161010-08:45:31.049|11=1476089131074|453=1|448=	|447=D|452=76|48=8033001|22=8|40=2|59=0|54=1|38=500|1138=500|44=25|581=1|528=A|60=20161010-09:45:31.040|10=069|8=FIXT.1.1|9=125|35=3|49=FGW|56=NEGFIXFIX1|34=26|52=20161010-08:45:31.115|1128=9|45=25|58=Incorrect data format for value|371=448|372=D|373=6|10=148|8=FIXT.1.1|9=198|35=D|34=26|49=NEGFIXFIX1|56=FGW|52=20161010-08:45:31.115|11=1476089131151|48=8033001|448=NEGFIXFIX1|453=1|447=D|452=76|22=8|40=2|59=0|54=1|38=500|1138=500|44=25|581=1|528=A|60=20161010-09:45:31.115|10=015|8=FIXT.1.1|9=131|35=3|49=FGW|56=NEGFIXFIX1|34=27|52=20161010-08:45:31.161|1128=9|45=26|58=Tag not defined for this message type|371=448|372=D|373=2|10=130|8=FIXT.1.1|9=198|35=D|34=27|49=NEGFIXFIX1|56=FGW|52=20161010-08:45:31.152|11=1476089131181|48=8033001|22=8|40=2|59=0|54=1|38=500|1138=500|44=25|581=1|528=A|60=20161010-09:45:31.144|453=1|447=D|448=NEGFIXFIX1|452=76|10=022|8=FIXT.1.1|9=130|35=3|49=FGW|56=NEGFIXFIX1|34=28|52=20161010-08:45:31.216|1128=9|45=27|58=Repeating group fields out of order|371=447|372=D|373=15|10=065|8=FIXT.1.1|9=198|35=D|34=28|49=NEGFIXFIX1|56=FGW|52=20161010-08:45:31.195|11=1476089131230|48=8033001|22=8|40=2|59=0|54=1|38=500|1138=500|44=25|581=1|528=A|60=20161010-09:45:31.192|453=1|452=76|448=NEGFIXFIX1|447=D|10=028|8=FIXT.1.1|9=130|35=3|49=FGW|56=NEGFIXFIX1|34=29|52=20161010-08:45:31.258|1128=9|45=28|58=Repeating group fields out of order|371=452|372=D|373=15|10=069|8=FIXT.1.1|9=211|35=D|34=29|49=NEGFIXFIX1|56=FGW|52=20161010-08:45:31.233|11=1476089131263|48=8033001|22=8|40=2|59=0|54=1|38=500|1138=500|44=25|581=1|528=A|60=20161010-09:45:31.224|453=1|448=NEGFIXFIX1|448=NEG_FIX2|447=D|452=76|10=058|8=FIXT.1.1|9=131|35=3|49=FGW|56=NEGFIXFIX1|34=30|52=20161010-08:45:31.296|1128=9|45=29|58=Tag not defined for this message type|371=448|372=D|373=2|10=136|8=FIXT.1.1|9=211|35=D|34=30|49=NEGFIXFIX1|56=FGW|52=20161010-08:45:31.278|11=1476089131315|48=8033001|22=8|40=2|59=0|54=1|38=500|1138=500|44=25|581=1|528=A|60=20161010-09:45:31.274|453=1|448=NEGFIXFIX1|447=D|452=76|448=NEG_FIX2|10=062|8=FIXT.1.1|9=131|35=3|49=FGW|56=NEGFIXFIX1|34=31|52=20161010-08:45:31.342|1128=9|45=30|58=Tag not defined for this message type|371=448|372=D|373=2|10=121|8=FIXT.1.1|9=143|35=q|34=31|49=NEGFIXFIX1|56=FGW|52=20161010-08:45:31.548|11=1476089131588|530=7|60=20161010-09:45:31.546|1461=1|1462=NEGFIXFIX1|1463=D|1464=76|10=154|8=FIXT.1.1|9=124|35=r|49=FGW|56=NEGFIXFIX1|34=32|52=20161010-08:45:31.614|1128=9|1369=O132zNg_29|11=1476089131588|1180=1|30001=1|530=7|531=7|10=181|8=FIXT.1.1|9=115|35=Z|34=32|49=NEGFIXFIX1|56=FGW|52=20161010-08:45:31.569|1166=1476089131610|298=4|1461=1|1462=NEGFIX|1463=D|1464=1|10=197|8=FIXT.1.1|9=166|35=b|49=FGW|56=NEGFIXFIX1|34=33|52=20161010-08:45:31.649|1128=9|117=1476089131610|298=4|297=5|300=2002|58=User not registered to mass cancel interest for firm|1180=1|10=088|8=FIXT.1.1|9=192|35=D|34=33|49=NEGFIXFIX1|56=FGW|52=20161010-08:45:31.634|11=1476089131663|48=8033001|22=8|40=2|59=0|54=1|38=500|1138=500|44=25|581=1|528=A|60=20161010-09:45:31.619|453=1|448=NEGFIXFIX1|452=76|10=253|8=FIXT.1.1|9=114|35=3|49=FGW|56=NEGFIXFIX1|34=34|52=20161010-08:45:31.670|1128=9|45=33|58=Required tag missing|371=447|372=D|373=1|10=151|8=FIXT.1.1|9=197|35=D|34=34|49=NEGFIXFIX1|56=FGW|52=20161010-08:45:31.650|11=1476089131695|48=8033001|22=8|40=2|59=0|54=1|38=500|1138=500|44=25|581=1|528=A|60=20161010-09:45:31.650|453=1|448=NEGFIXFIX1|447=|452=76|10=222|8=FIXT.1.1|9=123|35=3|49=FGW|56=NEGFIXFIX1|34=35|52=20161010-08:45:31.694|1128=9|45=34|58=Tag specified without a value|371=447|372=D|373=4|10=197|8=FIXT.1.1|9=198|35=D|34=35|49=NEGFIXFIX1|56=FGW|52=20161010-08:45:31.681|11=1476089131712|453=1|448=NEGFIXFIX1|447=	|452=76|48=8033001|22=8|40=2|59=0|54=1|38=500|1138=500|44=25|581=1|528=A|60=20161010-09:45:31.666|10=234|8=FIXT.1.1|9=125|35=3|49=FGW|56=NEGFIXFIX1|34=36|52=20161010-08:45:31.715|1128=9|45=35|58=Incorrect data format for value|371=447|372=D|373=6|10=155|8=FIXT.1.1|9=199|35=D|34=36|49=NEGFIXFIX1|56=FGW|52=20161010-08:45:31.682|11=1476089131729|48=8033001|22=8|40=2|59=0|54=1|38=500|1138=500|44=25|581=1|528=A|60=20161010-09:45:31.682|453=1|448=NEGFIXFIX1|447=DD|452=76|10=114|8=FIXT.1.1|9=140|35=3|49=FGW|56=NEGFIXFIX1|34=37|52=20161010-08:45:31.739|1128=9|372=D|45=36|371=447|373=5|58=Value is incorrect (out of range) for this tag|10=087|8=FIXT.1.1|9=198|35=D|34=37|49=NEGFIXFIX1|56=FGW|52=20161010-08:45:31.699|11=1476089131744|48=8033001|22=8|40=2|59=0|54=1|38=500|1138=500|44=25|581=1|528=A|60=20161010-09:45:31.696|453=1|448=NEGFIXFIX1|447=A|452=76|10=053|8=FIXT.1.1|9=140|35=3|49=FGW|56=NEGFIXFIX1|34=38|52=20161010-08:45:31.763|1128=9|372=D|45=37|371=447|373=5|58=Value is incorrect (out of range) for this tag|10=086|8=FIXT.1.1|9=198|35=D|34=38|49=NEGFIXFIX1|56=FGW|52=20161010-08:45:31.722|11=1476089131768|48=8033001|22=8|40=2|59=0|54=1|38=500|1138=500|44=25|581=1|528=A|60=20161010-09:45:31.719|453=1|448=NEGFIXFIX1|447=B|452=76|10=044|8=FIXT.1.1|9=140|35=3|49=FGW|56=NEGFIXFIX1|34=39|52=20161010-08:45:31.786|1128=9|372=D|45=38|371=447|373=5|58=Value is incorrect (out of range) for this tag|10=093|8=FIXT.1.1|9=198|35=D|34=39|49=NEGFIXFIX1|56=FGW|52=20161010-08:45:31.756|11=1476089131799|48=8033001|22=8|40=2|59=0|54=1|38=500|1138=500|44=25|581=1|528=A|60=20161010-09:45:31.749|453=1|448=NEGFIXFIX1|447=C|452=76|10=060|8=FIXT.1.1|9=140|35=3|49=FGW|56=NEGFIXFIX1|34=40|52=20161010-08:45:31.820|1128=9|372=D|45=39|371=447|373=5|58=Value is incorrect (out of range) for this tag|10=075|8=FIXT.1.1|9=198|35=D|34=40|49=NEGFIXFIX1|56=FGW|52=20161010-08:45:31.800|11=1476089131851|48=8033001|22=8|40=2|59=0|54=1|38=500|1138=500|44=25|581=1|528=A|60=20161010-09:45:31.800|453=1|448=NEGFIXFIX1|447=E|452=76|10=021|8=FIXT.1.1|9=140|35=3|49=FGW|56=NEGFIXFIX1|34=41|52=20161010-08:45:31.843|1128=9|372=D|45=40|371=447|373=5|58=Value is incorrect (out of range) for this tag|10=073|8=FIXT.1.1|9=198|35=D|34=41|49=NEGFIXFIX1|56=FGW|52=20161010-08:45:31.832|11=1476089131868|48=8033001|22=8|40=2|59=0|54=1|38=500|1138=500|44=25|581=1|528=A|60=20161010-09:45:31.816|453=1|448=NEGFIXFIX1|447=F|452=76|10=043|8=FIXT.1.1|9=140|35=3|49=FGW|56=NEGFIXFIX1|34=42|52=20161010-08:45:31.866|1128=9|372=D|45=41|371=447|373=5|58=Value is incorrect (out of range) for this tag|10=080|8=FIXT.1.1|9=198|35=D|34=42|49=NEGFIXFIX1|56=FGW|52=20161010-08:45:31.847|11=1476089131900|48=8033001|22=8|40=2|59=0|54=1|38=500|1138=500|44=25|581=1|528=A|60=20161010-09:45:31.847|453=1|448=NEGFIXFIX1|447=G|452=76|10=042|8=FIXT.1.1|9=140|35=3|49=FGW|56=NEGFIXFIX1|34=43|52=20161010-08:45:31.892|1128=9|372=D|45=42|371=447|373=5|58=Value is incorrect (out of range) for this tag|10=081|8=FIXT.1.1|9=198|35=D|34=43|49=NEGFIXFIX1|56=FGW|52=20161010-08:45:31.863|11=1476089131917|48=8033001|22=8|40=2|59=0|54=1|38=500|1138=500|44=25|581=1|528=A|60=20161010-09:45:31.863|453=1|448=NEGFIXFIX1|447=H|452=76|10=048|8=FIXT.1.1|9=140|35=3|49=FGW|56=NEGFIXFIX1|34=44|52=20161010-08:45:31.912|1128=9|372=D|45=43|371=447|373=5|58=Value is incorrect (out of range) for this tag|10=076|8=FIXT.1.1|9=198|35=D|34=44|49=NEGFIXFIX1|56=FGW|52=20161010-08:45:31.894|11=1476089131949|48=8033001|22=8|40=2|59=0|54=1|38=500|1138=500|44=25|581=1|528=A|60=20161010-09:45:31.894|453=1|448=NEGFIXFIX1|447=I|452=76|10=063|8=FIXT.1.1|9=140|35=3|49=FGW|56=NEGFIXFIX1|34=45|52=20161010-08:45:31.933|1128=9|372=D|45=44|371=447|373=5|58=Value is incorrect (out of range) for this tag|10=081|8=FIXT.1.1|9=198|35=D|34=45|49=NEGFIXFIX1|56=FGW|52=20161010-08:45:31.895|11=1476089131951|48=8033001|22=8|40=2|59=0|54=1|38=500|1138=500|44=25|581=1|528=A|60=20161010-09:45:31.895|453=1|448=NEGFIXFIX1|447=1|452=76|10=035|8=FIXT.1.1|9=140|35=3|49=FGW|56=NEGFIXFIX1|34=46|52=20161010-08:45:31.955|1128=9|372=D|45=45|371=447|373=5|58=Value is incorrect (out of range) for this tag|10=087|8=FIXT.1.1|9=198|35=D|34=46|49=NEGFIXFIX1|56=FGW|52=20161010-08:45:31.913|11=1476089131967|48=8033001|22=8|40=2|59=0|54=1|38=500|1138=500|44=25|581=1|528=A|60=20161010-09:45:31.910|453=1|448=NEGFIXFIX1|447=2|452=76|10=023|8=FIXT.1.1|9=140|35=3|49=FGW|56=NEGFIXFIX1|34=47|52=20161010-08:45:31.977|1128=9|372=D|45=46|371=447|373=5|58=Value is incorrect (out of range) for this tag|10=093|8=FIXT.1.1|9=198|35=D|34=47|49=NEGFIXFIX1|56=FGW|52=20161010-08:45:31.937|11=1476089131992|48=8033001|22=8|40=2|59=0|54=1|38=500|1138=500|44=25|581=1|528=A|60=20161010-09:45:31.934|453=1|448=NEGFIXFIX1|447=3|452=76|10=035|8=FIXT.1.1|9=140|35=3|49=FGW|56=NEGFIXFIX1|34=48|52=20161010-08:45:32.001|1128=9|372=D|45=47|371=447|373=5|58=Value is incorrect (out of range) for this tag|10=074|8=FIXT.1.1|9=198|35=D|34=48|49=NEGFIXFIX1|56=FGW|52=20161010-08:45:31.962|11=1476089132018|48=8033001|22=8|40=2|59=0|54=1|38=500|1138=500|44=25|581=1|528=A|60=20161010-09:45:31.959|453=1|448=NEGFIXFIX1|447=4|452=76|10=032|8=FIXT.1.1|9=140|35=3|49=FGW|56=NEGFIXFIX1|34=49|52=20161010-08:45:32.026|1128=9|372=D|45=48|371=447|373=5|58=Value is incorrect (out of range) for this tag|10=083|8=FIXT.1.1|9=198|35=D|34=49|49=NEGFIXFIX1|56=FGW|52=20161010-08:45:31.986|11=1476089132042|48=8033001|22=8|40=2|59=0|54=1|38=500|1138=500|44=25|581=1|528=A|60=20161010-09:45:31.982|453=1|448=NEGFIXFIX1|447=5|452=76|10=033|8=FIXT.1.1|9=140|35=3|49=FGW|56=NEGFIXFIX1|34=50|52=20161010-08:45:32.051|1128=9|372=D|45=49|371=447|373=5|58=Value is incorrect (out of range) for this tag|10=074|8=FIXT.1.1|9=198|35=D|34=50|49=NEGFIXFIX1|56=FGW|52=20161010-08:45:32.012|11=1476089132070|48=8033001|22=8|40=2|59=0|54=1|38=500|1138=500|44=25|581=1|528=A|60=20161010-09:45:32.009|453=1|448=NEGFIXFIX1|447=6|452=76|10=255|8=FIXT.1.1|9=140|35=3|49=FGW|56=NEGFIXFIX1|34=51|52=20161010-08:45:32.075|1128=9|372=D|45=50|371=447|373=5|58=Value is incorrect (out of range) for this tag|10=073|8=FIXT.1.1|9=198|35=D|34=51|49=NEGFIXFIX1|56=FGW|52=20161010-08:45:32.056|11=1476089132118|48=8033001|22=8|40=2|59=0|54=1|38=500|1138=500|44=25|581=1|528=A|60=20161010-09:45:32.056|453=1|448=NEGFIXFIX1|447=7|452=76|10=014|8=FIXT.1.1|9=140|35=3|49=FGW|56=NEGFIXFIX1|34=52|52=20161010-08:45:32.099|1128=9|372=D|45=51|371=447|373=5|58=Value is incorrect (out of range) for this tag|10=081|8=FIXT.1.1|9=198|35=D|34=52|49=NEGFIXFIX1|56=FGW|52=20161010-08:45:32.087|11=1476089132135|48=8033001|22=8|40=2|59=0|54=1|38=500|1138=500|44=25|581=1|528=A|60=20161010-09:45:32.072|453=1|448=NEGFIXFIX1|447=8|452=76|10=017|8=FIXT.1.1|9=140|35=3|49=FGW|56=NEGFIXFIX1|34=53|52=20161010-08:45:32.129|1128=9|372=D|45=52|371=447|373=5|58=Value is incorrect (out of range) for this tag|10=077|8=FIXT.1.1|9=198|35=D|34=53|49=NEGFIXFIX1|56=FGW|52=20161010-08:45:32.103|11=1476089132167|48=8033001|22=8|40=2|59=0|54=1|38=500|1138=500|44=25|581=1|528=A|60=20161010-09:45:32.103|453=1|448=NEGFIXFIX1|447=9|452=76|10=008|8=FIXT.1.1|9=140|35=3|49=FGW|56=NEGFIXFIX1|34=54|52=20161010-08:45:32.150|1128=9|372=D|45=53|371=447|373=5|58=Value is incorrect (out of range) for this tag|10=073|8=FIXT.1.1|9=198|35=D|34=54|49=NEGFIXFIX1|56=FGW|52=20161010-08:45:32.113|11=1476089132174|48=8033001|22=8|40=2|59=0|54=1|38=500|1138=500|44=25|581=1|528=A|60=20161010-09:45:32.109|453=1|448=NEGFIXFIX1|447=d|452=76|10=057|8=FIXT.1.1|9=140|35=3|49=FGW|56=NEGFIXFIX1|34=55|52=20161010-08:45:32.177|1128=9|372=D|45=54|371=447|373=5|58=Value is incorrect (out of range) for this tag|10=084|8=FIXT.1.1|9=204|35=D|34=55|49=NEGFIXFIX1|56=FGW|52=20161010-08:45:32.166|11=1476089132217|48=8033001|22=8|40=2|59=0|54=1|38=500|1138=500|44=25|581=1|528=A|60=20161010-09:45:32.151|453=1|448=NEGFIXFIX1|447=D|447=D|452=76|10=050|8=FIXT.1.1|9=131|35=3|49=FGW|56=NEGFIXFIX1|34=56|52=20161010-08:45:32.230|1128=9|45=55|58=Tag not defined for this message type|371=447|372=D|373=2|10=131|8=FIXT.1.1|9=204|35=D|34=56|49=NEGFIXFIX1|56=FGW|52=20161010-08:45:32.209|11=1476089132271|48=8033001|22=8|40=2|59=0|54=1|38=500|1138=500|44=25|581=1|528=A|60=20161010-09:45:32.204|453=1|448=NEGFIXFIX1|447=D|452=76|447=D|10=048|8=FIXT.1.1|9=131|35=3|49=FGW|56=NEGFIXFIX1|34=57|52=20161010-08:45:32.272|1128=9|45=56|58=Tag not defined for this message type|371=447|372=D|373=2|10=139|8=FIXT.1.1|9=143|35=q|34=57|49=NEGFIXFIX1|56=FGW|52=20161010-08:45:32.576|11=1476089132631|530=7|60=20161010-09:45:32.561|1461=1|1462=NEGFIXFIX1|1463=D|1464=76|10=152|8=FIXT.1.1|9=124|35=r|49=FGW|56=NEGFIXFIX1|34=58|52=20161010-08:45:32.616|1128=9|1369=O132zNg_33|11=1476089132631|1180=1|30001=1|530=7|531=7|10=177|8=FIXT.1.1|9=115|35=Z|34=58|49=NEGFIXFIX1|56=FGW|52=20161010-08:45:32.582|1166=1476089132651|298=4|1461=1|1462=NEGFIX|1463=D|1464=1|10=207|8=FIXT.1.1|9=166|35=b|49=FGW|56=NEGFIXFIX1|34=59|52=20161010-08:45:32.663|1128=9|117=1476089132651|298=4|297=5|300=2002|58=User not registered to mass cancel interest for firm|1180=1|10=099|8=FIXT.1.1|9=191|35=D|34=59|49=NEGFIXFIX1|56=FGW|52=20161010-08:45:32.618|11=1476089132687|48=8033001|22=8|40=2|59=0|54=1|38=500|1138=500|44=25|581=1|528=A|60=20161010-09:45:32.615|453=1|448=NEGFIXFIX1|447=D|10=230|8=FIXT.1.1|9=114|35=3|49=FGW|56=NEGFIXFIX1|34=60|52=20161010-08:45:32.682|1128=9|45=59|58=Required tag missing|371=452|372=D|373=1|10=158|8=FIXT.1.1|9=196|35=D|34=60|49=NEGFIXFIX1|56=FGW|52=20161010-08:45:32.667|11=1476089132740|48=8033001|22=8|40=2|59=0|54=1|38=500|1138=500|44=25|581=1|528=A|60=20161010-09:45:32.667|453=1|448=NEGFIXFIX1|447=D|452=|10=189|8=FIXT.1.1|9=123|35=3|49=FGW|56=NEGFIXFIX1|34=61|52=20161010-08:45:32.707|1128=9|45=60|58=Tag specified without a value|371=452|372=D|373=4|10=187|8=FIXT.1.1|9=207|35=D|34=61|49=NEGFIXFIX1|56=FGW|52=20161010-08:45:32.683|11=1476089132757|48=8033001|22=8|40=2|59=0|54=1|38=500|1138=500|44=25|581=1|528=A|60=20161010-09:45:32.683|453=1|448=NEGFIXFIX1|447=D|452=TraderGroup|10=042|8=FIXT.1.1|9=125|35=3|49=FGW|56=NEGFIXFIX1|34=62|52=20161010-08:45:32.735|1128=9|45=61|58=Incorrect data format for value|371=452|372=D|373=6|10=152|8=FIXT.1.1|9=197|35=D|34=62|49=NEGFIXFIX1|56=FGW|52=20161010-08:45:32.696|11=1476089132767|48=8033001|22=8|40=2|59=0|54=1|38=500|1138=500|44=25|581=1|528=A|60=20161010-09:45:32.692|453=1|448=NEGFIXFIX1|447=D|452=1|10=250|8=FIXT.1.1|9=140|35=3|49=FGW|56=NEGFIXFIX1|34=63|52=20161010-08:45:32.760|1128=9|372=D|45=62|371=452|373=5|58=Value is incorrect (out of range) for this tag|10=076|8=FIXT.1.1|9=197|35=D|34=63|49=NEGFIXFIX1|56=FGW|52=20161010-08:45:32.749|11=1476089132825|48=8033001|22=8|40=2|59=0|54=1|38=500|1138=500|44=25|581=1|528=A|60=20161010-09:45:32.749|453=1|448=NEGFIXFIX1|447=D|452=2|10=249|8=FIXT.1.1|9=140|35=3|49=FGW|56=NEGFIXFIX1|34=64|52=20161010-08:45:32.795|1128=9|372=D|45=63|371=452|373=5|58=Value is incorrect (out of range) for this tag|10=086|8=FIXT.1.1|9=197|35=D|34=64|49=NEGFIXFIX1|56=FGW|52=20161010-08:45:32.780|11=1476089132857|48=8033001|22=8|40=2|59=0|54=1|38=500|1138=500|44=25|581=1|528=A|60=20161010-09:45:32.780|453=1|448=NEGFIXFIX1|447=D|452=3|10=246|8=FIXT.1.1|9=140|35=3|49=FGW|56=NEGFIXFIX1|34=65|52=20161010-08:45:32.828|1128=9|372=D|45=64|371=452|373=5|58=Value is incorrect (out of range) for this tag|10=085|8=FIXT.1.1|9=197|35=D|34=65|49=NEGFIXFIX1|56=FGW|52=20161010-08:45:32.797|11=1476089132875|48=8033001|22=8|40=2|59=0|54=1|38=500|1138=500|44=25|581=1|528=A|60=20161010-09:45:32.797|453=1|448=NEGFIXFIX1|447=D|452=4|10=008|8=FIXT.1.1|9=140|35=3|49=FGW|56=NEGFIXFIX1|34=66|52=20161010-08:45:32.858|1128=9|372=D|45=65|371=452|373=5|58=Value is incorrect (out of range) for this tag|10=090|8=FIXT.1.1|9=197|35=D|34=66|49=NEGFIXFIX1|56=FGW|52=20161010-08:45:32.820|11=1476089132896|48=8033001|22=8|40=2|59=0|54=1|38=500|1138=500|44=25|581=1|528=A|60=20161010-09:45:32.817|453=1|448=NEGFIXFIX1|447=D|452=5|10=249|8=FIXT.1.1|9=140|35=3|49=FGW|56=NEGFIXFIX1|34=67|52=20161010-08:45:32.884|1128=9|372=D|45=66|371=452|373=5|58=Value is incorrect (out of range) for this tag|10=091|8=FIXT.1.1|9=197|35=D|34=67|49=NEGFIXFIX1|56=FGW|52=20161010-08:45:32.860|11=1476089132933|48=8033001|22=8|40=2|59=0|54=1|38=500|1138=500|44=25|581=1|528=A|60=20161010-09:45:32.853|453=1|448=NEGFIXFIX1|447=D|452=6|10=247|8=FIXT.1.1|9=140|35=3|49=FGW|56=NEGFIXFIX1|34=68|52=20161010-08:45:32.924|1128=9|372=D|45=67|371=452|373=5|58=Value is incorrect (out of range) for this tag|10=088|8=FIXT.1.1|9=197|35=D|34=68|49=NEGFIXFIX1|56=FGW|52=20161010-08:45:32.893|11=1476089132969|48=8033001|22=8|40=2|59=0|54=1|38=500|1138=500|44=25|581=1|528=A|60=20161010-09:45:32.888|453=1|448=NEGFIXFIX1|447=D|452=7|10=016|8=FIXT.1.1|9=140|35=3|49=FGW|56=NEGFIXFIX1|34=69|52=20161010-08:45:32.957|1128=9|372=D|45=68|371=452|373=5|58=Value is incorrect (out of range) for this tag|10=096|8=FIXT.1.1|9=197|35=D|34=69|49=NEGFIXFIX1|56=FGW|52=20161010-08:45:32.933|11=1476089133012|48=8033001|22=8|40=2|59=0|54=1|38=500|1138=500|44=25|581=1|528=A|60=20161010-09:45:32.930|453=1|448=NEGFIXFIX1|447=D|452=8|10=237|8=FIXT.1.1|9=140|35=3|49=FGW|56=NEGFIXFIX1|34=70|52=20161010-08:45:32.997|1128=9|372=D|45=69|371=452|373=5|58=Value is incorrect (out of range) for this tag|10=093|8=FIXT.1.1|9=197|35=D|34=70|49=NEGFIXFIX1|56=FGW|52=20161010-08:45:32.999|11=1476089133066|48=8033001|22=8|40=2|59=0|54=1|38=500|1138=500|44=25|581=1|528=A|60=20161010-09:45:32.983|453=1|448=NEGFIXFIX1|447=D|452=9|10=003|8=FIXT.1.1|9=140|35=3|49=FGW|56=NEGFIXFIX1|34=71|52=20161010-08:45:33.034|1128=9|372=D|45=70|371=452|373=5|58=Value is incorrect (out of range) for this tag|10=069|8=FIXT.1.1|9=198|35=D|34=71|49=NEGFIXFIX1|56=FGW|52=20161010-08:45:33.030|11=1476089133098|48=8033001|22=8|40=2|59=0|54=1|38=500|1138=500|44=25|581=1|528=A|60=20161010-09:45:33.014|453=1|448=NEGFIXFIX1|447=D|452=10|10=013|8=FIXT.1.1|9=140|35=3|49=FGW|56=NEGFIXFIX1|34=72|52=20161010-08:45:33.066|1128=9|372=D|45=71|371=452|373=5|58=Value is incorrect (out of range) for this tag|10=076|8=FIXT.1.1|9=198|35=D|34=72|49=NEGFIXFIX1|56=FGW|52=20161010-08:45:33.047|11=1476089133132|48=8033001|22=8|40=2|59=0|54=1|38=500|1138=500|44=25|581=1|528=A|60=20161010-09:45:33.047|453=1|448=NEGFIXFIX1|447=D|452=11|10=018|8=FIXT.1.1|9=140|35=3|49=FGW|56=NEGFIXFIX1|34=73|52=20161010-08:45:33.109|1128=9|372=D|45=72|371=452|373=5|58=Value is incorrect (out of range) for this tag|10=076|8=FIXT.1.1|9=198|35=D|34=73|49=NEGFIXFIX1|56=FGW|52=20161010-08:45:33.080|11=1476089133163|48=8033001|22=8|40=2|59=0|54=1|38=500|1138=500|44=25|581=1|528=A|60=20161010-09:45:33.077|453=1|448=NEGFIXFIX1|447=D|452=13|10=025|8=FIXT.1.1|9=140|35=3|49=FGW|56=NEGFIXFIX1|34=74|52=20161010-08:45:33.143|1128=9|372=D|45=73|371=452|373=5|58=Value is incorrect (out of range) for this tag|10=076|8=FIXT.1.1|9=198|35=D|34=74|49=NEGFIXFIX1|56=FGW|52=20161010-08:45:33.119|11=1476089133201|48=8033001|22=8|40=2|59=0|54=1|38=500|1138=500|44=25|581=1|528=A|60=20161010-09:45:33.114|453=1|448=NEGFIXFIX1|447=D|452=14|10=015|8=FIXT.1.1|9=140|35=3|49=FGW|56=NEGFIXFIX1|34=75|52=20161010-08:45:33.183|1128=9|372=D|45=74|371=452|373=5|58=Value is incorrect (out of range) for this tag|10=082|8=FIXT.1.1|9=198|35=D|34=75|49=NEGFIXFIX1|56=FGW|52=20161010-08:45:33.155|11=1476089133238|48=8033001|22=8|40=2|59=0|54=1|38=500|1138=500|44=25|581=1|528=A|60=20161010-09:45:33.150|453=1|448=NEGFIXFIX1|447=D|452=15|10=027|8=FIXT.1.1|9=140|35=3|49=FGW|56=NEGFIXFIX1|34=76|52=20161010-08:45:33.219|1128=9|372=D|45=75|371=452|373=5|58=Value is incorrect (out of range) for this tag|10=084|8=FIXT.1.1|9=198|35=D|34=76|49=NEGFIXFIX1|56=FGW|52=20161010-08:45:33.195|11=1476089133281|48=8033001|22=8|40=2|59=0|54=1|38=500|1138=500|44=25|581=1|528=A|60=20161010-09:45:33.192|453=1|448=NEGFIXFIX1|447=D|452=16|10=037|8=FIXT.1.1|9=140|35=3|49=FGW|56=NEGFIXFIX1|34=77|52=20161010-08:45:33.259|1128=9|372=D|45=76|371=452|373=5|58=Value is incorrect (out of range) for this tag|10=090|8=FIXT.1.1|9=198|35=D|34=77|49=NEGFIXFIX1|56=FGW|52=20161010-08:45:33.226|11=1476089133312|48=8033001|22=8|40=2|59=0|54=1|38=500|1138=500|44=25|581=1|528=A|60=20161010-09:45:33.222|453=1|448=NEGFIXFIX1|447=D|452=17|10=023|8=FIXT.1.1|9=140|35=3|49=FGW|56=NEGFIXFIX1|34=78|52=20161010-08:45:33.289|1128=9|372=D|45=77|371=452|373=5|58=Value is incorrect (out of range) for this tag|10=095|8=FIXT.1.1|9=198|35=D|34=78|49=NEGFIXFIX1|56=FGW|52=20161010-08:45:33.255|11=1476089133343|48=8033001|22=8|40=2|59=0|54=1|38=500|1138=500|44=25|581=1|528=A|60=20161010-09:45:33.252|453=1|448=NEGFIXFIX1|447=D|452=18|10=034|8=FIXT.1.1|9=140|35=3|49=FGW|56=NEGFIXFIX1|34=79|52=20161010-08:45:33.318|1128=9|372=D|45=78|371=452|373=5|58=Value is incorrect (out of range) for this tag|10=090|8=FIXT.1.1|9=198|35=D|34=79|49=NEGFIXFIX1|56=FGW|52=20161010-08:45:33.290|11=1476089133375|48=8033001|22=8|40=2|59=0|54=1|38=500|1138=500|44=25|581=1|528=A|60=20161010-09:45:33.283|453=1|448=NEGFIXFIX1|447=D|452=19|10=044|8=FIXT.1.1|9=140|35=3|49=FGW|56=NEGFIXFIX1|34=80|52=20161010-08:45:33.354|1128=9|372=D|45=79|371=452|373=5|58=Value is incorrect (out of range) for this tag|10=083|8=FIXT.1.1|9=198|35=D|34=80|49=NEGFIXFIX1|56=FGW|52=20161010-08:45:33.335|11=1476089133428|48=8033001|22=8|40=2|59=0|54=1|38=500|1138=500|44=25|581=1|528=A|60=20161010-09:45:33.335|453=1|448=NEGFIXFIX1|447=D|452=20|10=025|8=FIXT.1.1|9=140|35=3|49=FGW|56=NEGFIXFIX1|34=81|52=20161010-08:45:33.385|1128=9|372=D|45=80|371=452|373=5|58=Value is incorrect (out of range) for this tag|10=080|8=FIXT.1.1|9=198|35=D|34=81|49=NEGFIXFIX1|56=FGW|52=20161010-08:45:33.382|11=1476089133460|48=8033001|22=8|40=2|59=0|54=1|38=500|1138=500|44=25|581=1|528=A|60=20161010-09:45:33.366|453=1|448=NEGFIXFIX1|447=D|452=21|10=029|8=FIXT.1.1|9=140|35=3|49=FGW|56=NEGFIXFIX1|34=82|52=20161010-08:45:33.418|1128=9|372=D|45=81|371=452|373=5|58=Value is incorrect (out of range) for this tag|10=079|8=FIXT.1.1|9=198|35=D|34=82|49=NEGFIXFIX1|56=FGW|52=20161010-08:45:33.413|11=1476089133508|48=8033001|22=8|40=2|59=0|54=1|38=500|1138=500|44=25|581=1|528=A|60=20161010-09:45:33.413|453=1|448=NEGFIXFIX1|447=D|452=22|10=022|8=FIXT.1.1|9=140|35=3|49=FGW|56=NEGFIXFIX1|34=83|52=20161010-08:45:33.459|1128=9|372=D|45=82|371=452|373=5|58=Value is incorrect (out of range) for this tag|10=086|8=FIXT.1.1|9=198|35=D|34=83|49=NEGFIXFIX1|56=FGW|52=20161010-08:45:33.434|11=1476089133525|48=8033001|22=8|40=2|59=0|54=1|38=500|1138=500|44=25|581=1|528=A|60=20161010-09:45:33.429|453=1|448=NEGFIXFIX1|447=D|452=23|10=033|8=FIXT.1.1|9=140|35=3|49=FGW|56=NEGFIXFIX1|34=84|52=20161010-08:45:33.500|1128=9|372=D|45=83|371=452|373=5|58=Value is incorrect (out of range) for this tag|10=075|8=FIXT.1.1|9=198|35=D|34=84|49=NEGFIXFIX1|56=FGW|52=20161010-08:45:33.488|11=1476089133579|48=8033001|22=8|40=2|59=0|54=1|38=500|1138=500|44=25|581=1|528=A|60=20161010-09:45:33.481|453=1|448=NEGFIXFIX1|447=D|452=24|10=051|8=FIXT.1.1|9=140|35=3|49=FGW|56=NEGFIXFIX1|34=85|52=20161010-08:45:33.553|1128=9|372=D|45=84|371=452|373=5|58=Value is incorrect (out of range) for this tag|10=085|8=FIXT.1.1|9=198|35=D|34=85|49=NEGFIXFIX1|56=FGW|52=20161010-08:45:33.548|11=1476089133639|48=8033001|22=8|40=2|59=0|54=1|38=500|1138=500|44=25|581=1|528=A|60=20161010-09:45:33.540|453=1|448=NEGFIXFIX1|447=D|452=25|10=043|8=FIXT.1.1|9=140|35=3|49=FGW|56=NEGFIXFIX1|34=86|52=20161010-08:45:33.612|1128=9|372=D|45=85|371=452|373=5|58=Value is incorrect (out of range) for this tag|10=083|8=FIXT.1.1|9=198|35=D|34=86|49=NEGFIXFIX1|56=FGW|52=20161010-08:45:33.647|11=1476089133732|48=8033001|22=8|40=2|59=0|54=1|38=500|1138=500|44=25|581=1|528=A|60=20161010-09:45:33.631|453=1|448=NEGFIXFIX1|447=D|452=26|10=040|8=FIXT.1.1|9=140|35=3|49=FGW|56=NEGFIXFIX1|34=87|52=20161010-08:45:33.686|1128=9|372=D|45=86|371=452|373=5|58=Value is incorrect (out of range) for this tag|10=096|8=FIXT.1.1|9=198|35=D|34=87|49=NEGFIXFIX1|56=FGW|52=20161010-08:45:33.671|11=1476089133767|48=8033001|22=8|40=2|59=0|54=1|38=500|1138=500|44=25|581=1|528=A|60=20161010-09:45:33.665|453=1|448=NEGFIXFIX1|447=D|452=27|10=054|8=FIXT.1.1|9=140|35=3|49=FGW|56=NEGFIXFIX1|34=88|52=20161010-08:45:33.735|1128=9|372=D|45=87|371=452|373=5|58=Value is incorrect (out of range) for this tag|10=093|8=FIXT.1.1|9=198|35=D|34=88|49=NEGFIXFIX1|56=FGW|52=20161010-08:45:33.700|11=1476089133800|48=8033001|22=8|40=2|59=0|54=1|38=500|1138=500|44=25|581=1|528=A|60=20161010-09:45:33.697|453=1|448=NEGFIXFIX1|447=D|452=28|10=042|8=FIXT.1.1|9=140|35=3|49=FGW|56=NEGFIXFIX1|34=89|52=20161010-08:45:33.764|1128=9|372=D|45=88|371=452|373=5|58=Value is incorrect (out of range) for this tag|10=097|8=FIXT.1.1|9=198|35=D|34=89|49=NEGFIXFIX1|56=FGW|52=20161010-08:45:33.734|11=1476089133838|48=8033001|22=8|40=2|59=0|54=1|38=500|1138=500|44=25|581=1|528=A|60=20161010-09:45:33.734|453=1|448=NEGFIXFIX1|447=D|452=29|10=054|8=FIXT.1.1|9=140|35=3|49=FGW|56=NEGFIXFIX1|34=90|52=20161010-08:45:33.782|1128=9|372=D|45=89|371=452|373=5|58=Value is incorrect (out of range) for this tag|10=090|8=FIXT.1.1|9=198|35=D|34=90|49=NEGFIXFIX1|56=FGW|52=20161010-08:45:33.738|11=1476089133840|48=8033001|22=8|40=2|59=0|54=1|38=500|1138=500|44=25|581=1|528=A|60=20161010-09:45:33.735|453=1|448=NEGFIXFIX1|447=D|452=30|10=036|8=FIXT.1.1|9=140|35=3|49=FGW|56=NEGFIXFIX1|34=91|52=20161010-08:45:33.802|1128=9|372=D|45=90|371=452|373=5|58=Value is incorrect (out of range) for this tag|10=076|8=FIXT.1.1|9=198|35=D|34=91|49=NEGFIXFIX1|56=FGW|52=20161010-08:45:33.757|11=1476089133861|48=8033001|22=8|40=2|59=0|54=1|38=500|1138=500|44=25|581=1|528=A|60=20161010-09:45:33.755|453=1|448=NEGFIXFIX1|447=D|452=31|10=044|8=FIXT.1.1|9=140|35=3|49=FGW|56=NEGFIXFIX1|34=92|52=20161010-08:45:33.821|1128=9|372=D|45=91|371=452|373=5|58=Value is incorrect (out of range) for this tag|10=079|8=FIXT.1.1|9=198|35=D|34=92|49=NEGFIXFIX1|56=FGW|52=20161010-08:45:33.777|11=1476089133881|48=8033001|22=8|40=2|59=0|54=1|38=500|1138=500|44=25|581=1|528=A|60=20161010-09:45:33.774|453=1|448=NEGFIXFIX1|447=D|452=32|10=051|8=FIXT.1.1|9=140|35=3|49=FGW|56=NEGFIXFIX1|34=93|52=20161010-08:45:33.841|1128=9|372=D|45=92|371=452|373=5|58=Value is incorrect (out of range) for this tag|10=083|8=FIXT.1.1|9=198|35=D|34=93|49=NEGFIXFIX1|56=FGW|52=20161010-08:45:33.797|11=1476089133903|48=8033001|22=8|40=2|59=0|54=1|38=500|1138=500|44=25|581=1|528=A|60=20161010-09:45:33.795|453=1|448=NEGFIXFIX1|447=D|452=33|10=053|8=FIXT.1.1|9=140|35=3|49=FGW|56=NEGFIXFIX1|34=94|52=20161010-08:45:33.861|1128=9|372=D|45=93|371=452|373=5|58=Value is incorrect (out of range) for this tag|10=087|8=FIXT.1.1|9=198|35=D|34=94|49=NEGFIXFIX1|56=FGW|52=20161010-08:45:33.821|11=1476089133927|48=8033001|22=8|40=2|59=0|54=1|38=500|1138=500|44=25|581=1|528=A|60=20161010-09:45:33.818|453=1|448=NEGFIXFIX1|447=D|452=34|10=045|8=FIXT.1.1|9=140|35=3|49=FGW|56=NEGFIXFIX1|34=95|52=20161010-08:45:33.885|1128=9|372=D|45=94|371=452|373=5|58=Value is incorrect (out of range) for this tag|10=095|8=FIXT.1.1|9=198|35=D|34=95|49=NEGFIXFIX1|56=FGW|52=20161010-08:45:33.841|11=1476089133948|48=8033001|22=8|40=2|59=0|54=1|38=500|1138=500|44=25|581=1|528=A|60=20161010-09:45:33.838|453=1|448=NEGFIXFIX1|447=D|452=35|10=054|8=FIXT.1.1|9=140|35=3|49=FGW|56=NEGFIXFIX1|34=96|52=20161010-08:45:33.905|1128=9|372=D|45=95|371=452|373=5|58=Value is incorrect (out of range) for this tag|10=090|8=FIXT.1.1|9=198|35=D|34=96|49=NEGFIXFIX1|56=FGW|52=20161010-08:45:33.890|11=1476089133992|48=8033001|22=8|40=2|59=0|54=1|38=500|1138=500|44=25|581=1|528=A|60=20161010-09:45:33.881|453=1|448=NEGFIXFIX1|447=D|452=36|10=057|8=FIXT.1.1|9=140|35=3|49=FGW|56=NEGFIXFIX1|34=97|52=20161010-08:45:33.954|1128=9|372=D|45=96|371=452|373=5|58=Value is incorrect (out of range) for this tag|10=096|8=FIXT.1.1|9=198|35=D|34=97|49=NEGFIXFIX1|56=FGW|52=20161010-08:45:33.927|11=1476089134036|48=8033001|22=8|40=2|59=0|54=1|38=500|1138=500|44=25|581=1|528=A|60=20161010-09:45:33.924|453=1|448=NEGFIXFIX1|447=D|452=37|10=048|8=FIXT.1.1|9=140|35=3|49=FGW|56=NEGFIXFIX1|34=98|52=20161010-08:45:33.994|1128=9|372=D|45=97|371=452|373=5|58=Value is incorrect (out of range) for this tag|10=102|8=FIXT.1.1|9=198|35=D|34=98|49=NEGFIXFIX1|56=FGW|52=20161010-08:45:33.953|11=1476089134063|48=8033001|22=8|40=2|59=0|54=1|38=500|1138=500|44=25|581=1|528=A|60=20161010-09:45:33.950|453=1|448=NEGFIXFIX1|447=D|452=38|10=048|8=FIXT.1.1|9=140|35=3|49=FGW|56=NEGFIXFIX1|34=99|52=20161010-08:45:34.018|1128=9|372=D|45=98|371=452|373=5|58=Value is incorrect (out of range) for this tag|10=092|8=FIXT.1.1|9=198|35=D|34=99|49=NEGFIXFIX1|56=FGW|52=20161010-08:45:33.971|11=1476089134082|48=8033001|22=8|40=2|59=0|54=1|38=500|1138=500|44=25|581=1|528=A|60=20161010-09:45:33.968|453=1|448=NEGFIXFIX1|447=D|452=39|10=060|8=FIXT.1.1|9=141|35=3|49=FGW|56=NEGFIXFIX1|34=100|52=20161010-08:45:34.035|1128=9|372=D|45=99|371=452|373=5|58=Value is incorrect (out of range) for this tag|10=124|8=FIXT.1.1|9=199|35=D|34=100|49=NEGFIXFIX1|56=FGW|52=20161010-08:45:34.015|11=1476089134130|48=8033001|22=8|40=2|59=0|54=1|38=500|1138=500|44=25|581=1|528=A|60=20161010-09:45:34.015|453=1|448=NEGFIXFIX1|447=D|452=40|10=052|8=FIXT.1.1|9=142|35=3|49=FGW|56=NEGFIXFIX1|34=101|52=20161010-08:45:34.054|1128=9|372=D|45=100|371=452|373=5|58=Value is incorrect (out of range) for this tag|10=158|8=FIXT.1.1|9=199|35=D|34=101|49=NEGFIXFIX1|56=FGW|52=20161010-08:45:34.016|11=1476089134132|48=8033001|22=8|40=2|59=0|54=1|38=500|1138=500|44=25|581=1|528=A|60=20161010-09:45:34.016|453=1|448=NEGFIXFIX1|447=D|452=41|10=058|8=FIXT.1.1|9=142|35=3|49=FGW|56=NEGFIXFIX1|34=102|52=20161010-08:45:34.071|1128=9|372=D|45=101|371=452|373=5|58=Value is incorrect (out of range) for this tag|10=159|8=FIXT.1.1|9=199|35=D|34=102|49=NEGFIXFIX1|56=FGW|52=20161010-08:45:34.048|11=1476089134165|48=8033001|22=8|40=2|59=0|54=1|38=500|1138=500|44=25|581=1|528=A|60=20161010-09:45:34.048|453=1|448=NEGFIXFIX1|447=D|452=42|10=076|8=FIXT.1.1|9=142|35=3|49=FGW|56=NEGFIXFIX1|34=103|52=20161010-08:45:34.089|1128=9|372=D|45=102|371=452|373=5|58=Value is incorrect (out of range) for this tag|10=170|8=FIXT.1.1|9=199|35=D|34=103|49=NEGFIXFIX1|56=FGW|52=20161010-08:45:34.063|11=1476089134181|48=8033001|22=8|40=2|59=0|54=1|38=500|1138=500|44=25|581=1|528=A|60=20161010-09:45:34.063|453=1|448=NEGFIXFIX1|447=D|452=43|10=070|8=FIXT.1.1|9=142|35=3|49=FGW|56=NEGFIXFIX1|34=104|52=20161010-08:45:34.107|1128=9|372=D|45=103|371=452|373=5|58=Value is incorrect (out of range) for this tag|10=163|8=FIXT.1.1|9=199|35=D|34=104|49=NEGFIXFIX1|56=FGW|52=20161010-08:45:34.079|11=1476089134198|48=8033001|22=8|40=2|59=0|54=1|38=500|1138=500|44=25|581=1|528=A|60=20161010-09:45:34.079|453=1|448=NEGFIXFIX1|447=D|452=44|10=094|8=FIXT.1.1|9=142|35=3|49=FGW|56=NEGFIXFIX1|34=105|52=20161010-08:45:34.124|1128=9|372=D|45=104|371=452|373=5|58=Value is incorrect (out of range) for this tag|10=164|8=FIXT.1.1|9=199|35=D|34=105|49=NEGFIXFIX1|56=FGW|52=20161010-08:45:34.142|11=1476089134259|48=8033001|22=8|40=2|59=0|54=1|38=500|1138=500|44=25|581=1|528=A|60=20161010-09:45:34.139|453=1|448=NEGFIXFIX1|447=D|452=45|10=082|8=FIXT.1.1|9=142|35=3|49=FGW|56=NEGFIXFIX1|34=106|52=20161010-08:45:34.205|1128=9|372=D|45=105|371=452|373=5|58=Value is incorrect (out of range) for this tag|10=166|8=FIXT.1.1|9=199|35=D|34=106|49=NEGFIXFIX1|56=FGW|52=20161010-08:45:34.178|11=1476089134296|48=8033001|22=8|40=2|59=0|54=1|38=500|1138=500|44=25|581=1|528=A|60=20161010-09:45:34.175|453=1|448=NEGFIXFIX1|447=D|452=46|10=094|8=FIXT.1.1|9=142|35=3|49=FGW|56=NEGFIXFIX1|34=107|52=20161010-08:45:34.241|1128=9|372=D|45=106|371=452|373=5|58=Value is incorrect (out of range) for this tag|10=168|8=FIXT.1.1|9=199|35=D|34=107|49=NEGFIXFIX1|56=FGW|52=20161010-08:45:34.199|11=1476089134318|48=8033001|22=8|40=2|59=0|54=1|38=500|1138=500|44=25|581=1|528=A|60=20161010-09:45:34.196|453=1|448=NEGFIXFIX1|447=D|452=47|10=097|8=FIXT.1.1|9=142|35=3|49=FGW|56=NEGFIXFIX1|34=108|52=20161010-08:45:34.264|1128=9|372=D|45=107|371=452|373=5|58=Value is incorrect (out of range) for this tag|10=175|8=FIXT.1.1|9=199|35=D|34=108|49=NEGFIXFIX1|56=FGW|52=20161010-08:45:34.223|11=1476089134343|48=8033001|22=8|40=2|59=0|54=1|38=500|1138=500|44=25|581=1|528=A|60=20161010-09:45:34.220|453=1|448=NEGFIXFIX1|447=D|452=48|10=073|8=FIXT.1.1|9=142|35=3|49=FGW|56=NEGFIXFIX1|34=109|52=20161010-08:45:34.292|1128=9|372=D|45=108|371=452|373=5|58=Value is incorrect (out of range) for this tag|10=178|8=FIXT.1.1|9=199|35=D|34=109|49=NEGFIXFIX1|56=FGW|52=20161010-08:45:34.253|11=1476089134373|48=8033001|22=8|40=2|59=0|54=1|38=500|1138=500|44=25|581=1|528=A|60=20161010-09:45:34.249|453=1|448=NEGFIXFIX1|447=D|452=49|10=092|8=FIXT.1.1|9=142|35=3|49=FGW|56=NEGFIXFIX1|34=110|52=20161010-08:45:34.317|1128=9|372=D|45=109|371=452|373=5|58=Value is incorrect (out of range) for this tag|10=169|8=FIXT.1.1|9=199|35=D|34=110|49=NEGFIXFIX1|56=FGW|52=20161010-08:45:34.286|11=1476089134411|48=8033001|22=8|40=2|59=0|54=1|38=500|1138=500|44=25|581=1|528=A|60=20161010-09:45:34.286|453=1|448=NEGFIXFIX1|447=D|452=50|10=076|8=FIXT.1.1|9=142|35=3|49=FGW|56=NEGFIXFIX1|34=111|52=20161010-08:45:34.342|1128=9|372=D|45=110|371=452|373=5|58=Value is incorrect (out of range) for this tag|10=160|8=FIXT.1.1|9=199|35=D|34=111|49=NEGFIXFIX1|56=FGW|52=20161010-08:45:34.299|11=1476089134422|48=8033001|22=8|40=2|59=0|54=1|38=500|1138=500|44=25|581=1|528=A|60=20161010-09:45:34.296|453=1|448=NEGFIXFIX1|447=D|452=51|10=085|8=FIXT.1.1|9=142|35=3|49=FGW|56=NEGFIXFIX1|34=112|52=20161010-08:45:34.363|1128=9|372=D|45=111|371=452|373=5|58=Value is incorrect (out of range) for this tag|10=165|8=FIXT.1.1|9=199|35=D|34=112|49=NEGFIXFIX1|56=FGW|52=20161010-08:45:34.319|11=1476089134443|48=8033001|22=8|40=2|59=0|54=1|38=500|1138=500|44=25|581=1|528=A|60=20161010-09:45:34.316|453=1|448=NEGFIXFIX1|447=D|452=52|10=076|8=FIXT.1.1|9=142|35=3|49=FGW|56=NEGFIXFIX1|34=113|52=20161010-08:45:34.382|1128=9|372=D|45=112|371=452|373=5|58=Value is incorrect (out of range) for this tag|10=168|8=FIXT.1.1|9=199|35=D|34=113|49=NEGFIXFIX1|56=FGW|52=20161010-08:45:34.339|11=1476089134464|48=8033001|22=8|40=2|59=0|54=1|38=500|1138=500|44=25|581=1|528=A|60=20161010-09:45:34.336|453=1|448=NEGFIXFIX1|447=D|452=53|10=085|8=FIXT.1.1|9=142|35=3|49=FGW|56=NEGFIXFIX1|34=114|52=20161010-08:45:34.403|1128=9|372=D|45=113|371=452|373=5|58=Value is incorrect (out of range) for this tag|10=164|8=FIXT.1.1|9=199|35=D|34=114|49=NEGFIXFIX1|56=FGW|52=20161010-08:45:34.360|11=1476089134487|48=8033001|22=8|40=2|59=0|54=1|38=500|1138=500|44=25|581=1|528=A|60=20161010-09:45:34.358|453=1|448=NEGFIXFIX1|447=D|452=54|10=090|8=FIXT.1.1|9=142|35=3|49=FGW|56=NEGFIXFIX1|34=115|52=20161010-08:45:34.424|1128=9|372=D|45=114|371=452|373=5|58=Value is incorrect (out of range) for this tag|10=169|8=FIXT.1.1|9=199|35=D|34=115|49=NEGFIXFIX1|56=FGW|52=20161010-08:45:34.384|11=1476089134509|48=8033001|22=8|40=2|59=0|54=1|38=500|1138=500|44=25|581=1|528=A|60=20161010-09:45:34.379|453=1|448=NEGFIXFIX1|447=D|452=55|10=096|8=FIXT.1.1|9=142|35=3|49=FGW|56=NEGFIXFIX1|34=116|52=20161010-08:45:34.448|1128=9|372=D|45=115|371=452|373=5|58=Value is incorrect (out of range) for this tag|10=177|8=FIXT.1.1|9=199|35=D|34=116|49=NEGFIXFIX1|56=FGW|52=20161010-08:45:34.406|11=1476089134534|48=8033001|22=8|40=2|59=0|54=1|38=500|1138=500|44=25|581=1|528=A|60=20161010-09:45:34.403|453=1|448=NEGFIXFIX1|447=D|452=56|10=079|8=FIXT.1.1|9=142|35=3|49=FGW|56=NEGFIXFIX1|34=117|52=20161010-08:45:34.470|1128=9|372=D|45=116|371=452|373=5|58=Value is incorrect (out of range) for this tag|10=174|8=FIXT.1.1|9=199|35=D|34=117|49=NEGFIXFIX1|56=FGW|52=20161010-08:45:34.429|11=1476089134555|48=8033001|22=8|40=2|59=0|54=1|38=500|1138=500|44=25|581=1|528=A|60=20161010-09:45:34.423|453=1|448=NEGFIXFIX1|447=D|452=57|10=091|8=FIXT.1.1|9=142|35=3|49=FGW|56=NEGFIXFIX1|34=118|52=20161010-08:45:34.496|1128=9|372=D|45=117|371=452|373=5|58=Value is incorrect (out of range) for this tag|10=184|8=FIXT.1.1|9=199|35=D|34=118|49=NEGFIXFIX1|56=FGW|52=20161010-08:45:34.456|11=1476089134585|48=8033001|22=8|40=2|59=0|54=1|38=500|1138=500|44=25|581=1|528=A|60=20161010-09:45:34.452|453=1|448=NEGFIXFIX1|447=D|452=58|10=098|8=FIXT.1.1|9=142|35=3|49=FGW|56=NEGFIXFIX1|34=119|52=20161010-08:45:34.519|1128=9|372=D|45=118|371=452|373=5|58=Value is incorrect (out of range) for this tag|10=182|8=FIXT.1.1|9=199|35=D|34=119|49=NEGFIXFIX1|56=FGW|52=20161010-08:45:34.477|11=1476089134609|48=8033001|22=8|40=2|59=0|54=1|38=500|1138=500|44=25|581=1|528=A|60=20161010-09:45:34.475|453=1|448=NEGFIXFIX1|447=D|452=59|10=105|8=FIXT.1.1|9=142|35=3|49=FGW|56=NEGFIXFIX1|34=120|52=20161010-08:45:34.541|1128=9|372=D|45=119|371=452|373=5|58=Value is incorrect (out of range) for this tag|10=170|8=FIXT.1.1|9=199|35=D|34=120|49=NEGFIXFIX1|56=FGW|52=20161010-08:45:34.523|11=1476089134653|48=8033001|22=8|40=2|59=0|54=1|38=500|1138=500|44=25|581=1|528=A|60=20161010-09:45:34.518|453=1|448=NEGFIXFIX1|447=D|452=60|10=078|8=FIXT.1.1|9=142|35=3|49=FGW|56=NEGFIXFIX1|34=121|52=20161010-08:45:34.587|1128=9|372=D|45=120|371=452|373=5|58=Value is incorrect (out of range) for this tag|10=173|8=FIXT.1.1|9=199|35=D|34=121|49=NEGFIXFIX1|56=FGW|52=20161010-08:45:34.544|11=1476089134677|48=8033001|22=8|40=2|59=0|54=1|38=500|1138=500|44=25|581=1|528=A|60=20161010-09:45:34.541|453=1|448=NEGFIXFIX1|447=D|452=61|10=085|8=FIXT.1.1|9=142|35=3|49=FGW|56=NEGFIXFIX1|34=122|52=20161010-08:45:34.607|1128=9|372=D|45=121|371=452|373=5|58=Value is incorrect (out of range) for this tag|10=168|8=FIXT.1.1|9=199|35=D|34=122|49=NEGFIXFIX1|56=FGW|52=20161010-08:45:34.573|11=1476089134706|48=8033001|22=8|40=2|59=0|54=1|38=500|1138=500|44=25|581=1|528=A|60=20161010-09:45:34.569|453=1|448=NEGFIXFIX1|447=D|452=62|10=092|8=FIXT.1.1|9=142|35=3|49=FGW|56=NEGFIXFIX1|34=123|52=20161010-08:45:34.636|1128=9|372=D|45=122|371=452|373=5|58=Value is incorrect (out of range) for this tag|10=172|8=FIXT.1.1|9=199|35=D|34=123|49=NEGFIXFIX1|56=FGW|52=20161010-08:45:34.599|11=1476089134734|48=8033001|22=8|40=2|59=0|54=1|38=500|1138=500|44=25|581=1|528=A|60=20161010-09:45:34.596|453=1|448=NEGFIXFIX1|447=D|452=63|10=103|8=FIXT.1.1|9=142|35=3|49=FGW|56=NEGFIXFIX1|34=124|52=20161010-08:45:34.663|1128=9|372=D|45=123|371=452|373=5|58=Value is incorrect (out of range) for this tag|10=174|8=FIXT.1.1|9=199|35=D|34=124|49=NEGFIXFIX1|56=FGW|52=20161010-08:45:34.636|11=1476089134776|48=8033001|22=8|40=2|59=0|54=1|38=500|1138=500|44=25|581=1|528=A|60=20161010-09:45:34.636|453=1|448=NEGFIXFIX1|447=D|452=64|10=098|8=FIXT.1.1|9=142|35=3|49=FGW|56=NEGFIXFIX1|34=125|52=20161010-08:45:34.689|1128=9|372=D|45=124|371=452|373=5|58=Value is incorrect (out of range) for this tag|10=184|8=FIXT.1.1|9=199|35=D|34=125|49=NEGFIXFIX1|56=FGW|52=20161010-08:45:34.645|11=1476089134781|48=8033001|22=8|40=2|59=0|54=1|38=500|1138=500|44=25|581=1|528=A|60=20161010-09:45:34.640|453=1|448=NEGFIXFIX1|447=D|452=65|10=091|8=FIXT.1.1|9=142|35=3|49=FGW|56=NEGFIXFIX1|34=126|52=20161010-08:45:34.708|1128=9|372=D|45=125|371=452|373=5|58=Value is incorrect (out of range) for this tag|10=178|8=FIXT.1.1|9=199|35=D|34=126|49=NEGFIXFIX1|56=FGW|52=20161010-08:45:34.677|11=1476089134816|48=8033001|22=8|40=2|59=0|54=1|38=500|1138=500|44=25|581=1|528=A|60=20161010-09:45:34.673|453=1|448=NEGFIXFIX1|447=D|452=66|10=103|8=FIXT.1.1|9=142|35=3|49=FGW|56=NEGFIXFIX1|34=127|52=20161010-08:45:34.740|1128=9|372=D|45=126|371=452|373=5|58=Value is incorrect (out of range) for this tag|10=176|8=FIXT.1.1|9=199|35=D|34=127|49=NEGFIXFIX1|56=FGW|52=20161010-08:45:34.697|11=1476089134838|48=8033001|22=8|40=2|59=0|54=1|38=500|1138=500|44=25|581=1|528=A|60=20161010-09:45:34.694|453=1|448=NEGFIXFIX1|447=D|452=67|10=114|8=FIXT.1.1|9=142|35=3|49=FGW|56=NEGFIXFIX1|34=128|52=20161010-08:45:34.760|1128=9|372=D|45=127|371=452|373=5|58=Value is incorrect (out of range) for this tag|10=180|8=FIXT.1.1|9=199|35=D|34=128|49=NEGFIXFIX1|56=FGW|52=20161010-08:45:34.716|11=1476089134859|48=8033001|22=8|40=2|59=0|54=1|38=500|1138=500|44=25|581=1|528=A|60=20161010-09:45:34.714|453=1|448=NEGFIXFIX1|447=D|452=68|10=104|8=FIXT.1.1|9=142|35=3|49=FGW|56=NEGFIXFIX1|34=129|52=20161010-08:45:34.780|1128=9|372=D|45=128|371=452|373=5|58=Value is incorrect (out of range) for this tag|10=184|8=FIXT.1.1|9=199|35=D|34=129|49=NEGFIXFIX1|56=FGW|52=20161010-08:45:34.735|11=1476089134878|48=8033001|22=8|40=2|59=0|54=1|38=500|1138=500|44=25|581=1|528=A|60=20161010-09:45:34.732|453=1|448=NEGFIXFIX1|447=D|452=69|10=108|8=FIXT.1.1|9=142|35=3|49=FGW|56=NEGFIXFIX1|34=130|52=20161010-08:45:34.799|1128=9|372=D|45=129|371=452|373=5|58=Value is incorrect (out of range) for this tag|10=187|8=FIXT.1.1|9=199|35=D|34=130|49=NEGFIXFIX1|56=FGW|52=20161010-08:45:34.756|11=1476089134900|48=8033001|22=8|40=2|59=0|54=1|38=500|1138=500|44=25|581=1|528=A|60=20161010-09:45:34.753|453=1|448=NEGFIXFIX1|447=D|452=70|10=084|8=FIXT.1.1|9=142|35=3|49=FGW|56=NEGFIXFIX1|34=131|52=20161010-08:45:34.821|1128=9|372=D|45=130|371=452|373=5|58=Value is incorrect (out of range) for this tag|10=166|8=FIXT.1.1|9=199|35=D|34=131|49=NEGFIXFIX1|56=FGW|52=20161010-08:45:34.781|11=1476089134924|48=8033001|22=8|40=2|59=0|54=1|38=500|1138=500|44=25|581=1|528=A|60=20161010-09:45:34.776|453=1|448=NEGFIXFIX1|447=D|452=71|10=095|8=FIXT.1.1|9=142|35=3|49=FGW|56=NEGFIXFIX1|34=132|52=20161010-08:45:34.847|1128=9|372=D|45=131|371=452|373=5|58=Value is incorrect (out of range) for this tag|10=176|8=FIXT.1.1|9=199|35=D|34=132|49=NEGFIXFIX1|56=FGW|52=20161010-08:45:34.803|11=1476089134949|48=8033001|22=8|40=2|59=0|54=1|38=500|1138=500|44=25|581=1|528=A|60=20161010-09:45:34.800|453=1|448=NEGFIXFIX1|447=D|452=72|10=087|8=FIXT.1.1|9=142|35=3|49=FGW|56=NEGFIXFIX1|34=133|52=20161010-08:45:34.866|1128=9|372=D|45=132|371=452|373=5|58=Value is incorrect (out of range) for this tag|10=179|8=FIXT.1.1|9=199|35=D|34=133|49=NEGFIXFIX1|56=FGW|52=20161010-08:45:34.821|11=1476089134968|48=8033001|22=8|40=2|59=0|54=1|38=500|1138=500|44=25|581=1|528=A|60=20161010-09:45:34.818|453=1|448=NEGFIXFIX1|447=D|452=73|10=099|8=FIXT.1.1|9=142|35=3|49=FGW|56=NEGFIXFIX1|34=134|52=20161010-08:45:34.884|1128=9|372=D|45=133|371=452|373=5|58=Value is incorrect (out of range) for this tag|10=181|8=FIXT.1.1|9=199|35=D|34=134|49=NEGFIXFIX1|56=FGW|52=20161010-08:45:34.842|11=1476089134991|48=8033001|22=8|40=2|59=0|54=1|38=500|1138=500|44=25|581=1|528=A|60=20161010-09:45:34.840|453=1|448=NEGFIXFIX1|447=D|452=74|10=095|8=FIXT.1.1|9=142|35=3|49=FGW|56=NEGFIXFIX1|34=135|52=20161010-08:45:34.906|1128=9|372=D|45=134|371=452|373=5|58=Value is incorrect (out of range) for this tag|10=178|8=FIXT.1.1|9=199|35=D|34=135|49=NEGFIXFIX1|56=FGW|52=20161010-08:45:34.860|11=1476089135010|48=8033001|22=8|40=2|59=0|54=1|38=500|1138=500|44=25|581=1|528=A|60=20161010-09:45:34.858|453=1|448=NEGFIXFIX1|447=D|452=75|10=089|8=FIXT.1.1|9=142|35=3|49=FGW|56=NEGFIXFIX1|34=136|52=20161010-08:45:34.924|1128=9|372=D|45=135|371=452|373=5|58=Value is incorrect (out of range) for this tag|10=180|8=FIXT.1.1|9=199|35=D|34=136|49=NEGFIXFIX1|56=FGW|52=20161010-08:45:34.880|11=1476089135029|48=8033001|22=8|40=2|59=0|54=1|38=500|1138=500|44=25|581=1|528=A|60=20161010-09:45:34.876|453=1|448=NEGFIXFIX1|447=D|452=77|10=104|8=FIXT.1.1|9=142|35=3|49=FGW|56=NEGFIXFIX1|34=137|52=20161010-08:45:34.943|1128=9|372=D|45=136|371=452|373=5|58=Value is incorrect (out of range) for this tag|10=183|8=FIXT.1.1|9=199|35=D|34=137|49=NEGFIXFIX1|56=FGW|52=20161010-08:45:34.912|11=1476089135065|48=8033001|22=8|40=2|59=0|54=1|38=500|1138=500|44=25|581=1|528=A|60=20161010-09:45:34.911|453=1|448=NEGFIXFIX1|447=D|452=78|10=092|8=FIXT.1.1|9=142|35=3|49=FGW|56=NEGFIXFIX1|34=138|52=20161010-08:45:34.964|1128=9|372=D|45=137|371=452|373=5|58=Value is incorrect (out of range) for this tag|10=188|8=FIXT.1.1|9=199|35=D|34=138|49=NEGFIXFIX1|56=FGW|52=20161010-08:45:34.920|11=1476089135073|48=8033001|22=8|40=2|59=0|54=1|38=500|1138=500|44=25|581=1|528=A|60=20161010-09:45:34.918|453=1|448=NEGFIXFIX1|447=D|452=79|10=099|8=FIXT.1.1|9=142|35=3|49=FGW|56=NEGFIXFIX1|34=139|52=20161010-08:45:34.984|1128=9|372=D|45=138|371=452|373=5|58=Value is incorrect (out of range) for this tag|10=192|8=FIXT.1.1|9=199|35=D|34=139|49=NEGFIXFIX1|56=FGW|52=20161010-08:45:34.942|11=1476089135095|48=8033001|22=8|40=2|59=0|54=1|38=500|1138=500|44=25|581=1|528=A|60=20161010-09:45:34.939|453=1|448=NEGFIXFIX1|447=D|452=80|10=103|8=FIXT.1.1|9=142|35=3|49=FGW|56=NEGFIXFIX1|34=140|52=20161010-08:45:35.007|1128=9|372=D|45=139|371=452|373=5|58=Value is incorrect (out of range) for this tag|10=172|8=FIXT.1.1|9=199|35=D|34=140|49=NEGFIXFIX1|56=FGW|52=20161010-08:45:34.982|11=1476089135135|48=8033001|22=8|40=2|59=0|54=1|38=500|1138=500|44=25|581=1|528=A|60=20161010-09:45:34.978|453=1|448=NEGFIXFIX1|447=D|452=81|10=098|8=FIXT.1.1|9=142|35=3|49=FGW|56=NEGFIXFIX1|34=141|52=20161010-08:45:35.053|1128=9|372=D|45=140|371=452|373=5|58=Value is incorrect (out of range) for this tag|10=166|8=FIXT.1.1|9=199|35=D|34=141|49=NEGFIXFIX1|56=FGW|52=20161010-08:45:35.013|11=1476089135169|48=8033001|22=8|40=2|59=0|54=1|38=500|1138=500|44=25|581=1|528=A|60=20161010-09:45:35.011|453=1|448=NEGFIXFIX1|447=D|452=82|10=072|8=FIXT.1.1|9=142|35=3|49=FGW|56=NEGFIXFIX1|34=142|52=20161010-08:45:35.077|1128=9|372=D|45=141|371=452|373=5|58=Value is incorrect (out of range) for this tag|10=174|8=FIXT.1.1|9=199|35=D|34=142|49=NEGFIXFIX1|56=FGW|52=20161010-08:45:35.032|11=1476089135188|48=8033001|22=8|40=2|59=0|54=1|38=500|1138=500|44=25|581=1|528=A|60=20161010-09:45:35.029|453=1|448=NEGFIXFIX1|447=D|452=83|10=085|8=FIXT.1.1|9=142|35=3|49=FGW|56=NEGFIXFIX1|34=143|52=20161010-08:45:35.096|1128=9|372=D|45=142|371=452|373=5|58=Value is incorrect (out of range) for this tag|10=177|8=FIXT.1.1|9=199|35=D|34=143|49=NEGFIXFIX1|56=FGW|52=20161010-08:45:35.055|11=1476089135212|48=8033001|22=8|40=2|59=0|54=1|38=500|1138=500|44=25|581=1|528=A|60=20161010-09:45:35.052|453=1|448=NEGFIXFIX1|447=D|452=84|10=076|8=FIXT.1.1|9=142|35=3|49=FGW|56=NEGFIXFIX1|34=144|52=20161010-08:45:35.119|1128=9|372=D|45=143|371=452|373=5|58=Value is incorrect (out of range) for this tag|10=175|8=FIXT.1.1|9=199|35=D|34=144|49=NEGFIXFIX1|56=FGW|52=20161010-08:45:35.074|11=1476089135233|48=8033001|22=8|40=2|59=0|54=1|38=500|1138=500|44=25|581=1|528=A|60=20161010-09:45:35.072|453=1|448=NEGFIXFIX1|447=D|452=85|10=084|8=FIXT.1.1|9=142|35=3|49=FGW|56=NEGFIXFIX1|34=145|52=20161010-08:45:35.143|1128=9|372=D|45=144|371=452|373=5|58=Value is incorrect (out of range) for this tag|10=174|8=FIXT.1.1|9=199|35=D|34=145|49=NEGFIXFIX1|56=FGW|52=20161010-08:45:35.109|11=1476089135268|48=8033001|22=8|40=2|59=0|54=1|38=500|1138=500|44=25|581=1|528=A|60=20161010-09:45:35.106|453=1|448=NEGFIXFIX1|447=D|452=12|10=080|8=FIXT.1.1|9=151|35=j|49=FGW|56=NEGFIXFIX1|34=146|52=20161010-08:45:35.173|1128=9|45=145|372=D|379=1476089135268|380=0|58=Trader Group not specified on message|371=452|10=214|8=FIXT.1.1|9=206|35=D|34=146|49=NEGFIXFIX1|56=FGW|52=20161010-08:45:35.140|11=1476089135299|48=8033001|22=8|40=2|59=0|54=1|38=500|1138=500|44=25|581=1|528=A|60=20161010-09:45:35.136|453=1|448=NEGFIXFIX1|447=D|452=12|452=76|10=142|8=FIXT.1.1|9=133|35=3|49=FGW|56=NEGFIXFIX1|34=147|52=20161010-08:45:35.204|1128=9|45=146|58=Tag not defined for this message type|371=452|372=D|373=2|10=231|8=FIXT.1.1|9=206|35=D|34=147|49=NEGFIXFIX1|56=FGW|52=20161010-08:45:35.161|11=1476089135322|48=8033001|22=8|40=2|59=0|54=1|38=500|1138=500|44=25|581=1|528=A|60=20161010-09:45:35.158|453=1|448=NEGFIXFIX1|447=D|452=76|452=12|10=137|8=FIXT.1.1|9=133|35=3|49=FGW|56=NEGFIXFIX1|34=148|52=20161010-08:45:35.224|1128=9|45=147|58=Tag not defined for this message type|371=452|372=D|373=2|10=235|8=FIXT.1.1|9=144|35=q|34=148|49=NEGFIXFIX1|56=FGW|52=20161010-08:45:35.734|11=1476089135899|530=7|60=20161010-09:45:35.734|1461=1|1462=NEGFIXFIX1|1463=D|1464=76|10=225|8=FIXT.1.1|9=125|35=r|49=FGW|56=NEGFIXFIX1|34=149|52=20161010-08:45:35.778|1128=9|1369=O132zNg_37|11=1476089135899|1180=1|30001=1|530=7|531=7|10=006|8=FIXT.1.1|9=116|35=Z|34=149|49=NEGFIXFIX1|56=FGW|52=20161010-08:45:35.780|1166=1476089135947|298=4|1461=1|1462=NEGFIX|1463=D|1464=1|10=015|8=FIXT.1.1|9=167|35=b|49=FGW|56=NEGFIXFIX1|34=150|52=20161010-08:45:35.842|1128=9|117=1476089135947|298=4|297=5|300=2002|58=User not registered to mass cancel interest for firm|1180=1|10=153|8=FIXT.1.1|9=213|35=D|34=150|49=NEGFIXFIX1|56=FGW|52=20161010-08:45:35.815|11=1476089135982|1=A1234567890|48=8033001|22=8|40=2|59=0|54=1|38=500|1138=500|44=25|581=1|528=A|60=20161010-09:45:35.813|453=1|448=NEGFIXFIX1|447=D|452=76|10=018|8=FIXT.1.1|9=140|35=3|49=FGW|56=NEGFIXFIX1|34=151|52=20161010-08:45:35.879|1128=9|45=150|58=Value is incorrect (out of range) for this tag|371=1|372=D|373=5|10=076|8=FIXT.1.1|9=202|35=D|34=151|49=NEGFIXFIX1|56=FGW|52=20161010-08:45:36.916|11=1476089137072|1=|48=8033001|22=8|40=2|59=0|54=1|38=500|1138=500|44=25|581=1|528=A|60=20161010-09:45:36.901|453=1|448=NEGFIXFIX1|447=D|452=76|10=189|8=FIXT.1.1|9=123|35=3|49=FGW|56=NEGFIXFIX1|34=152|52=20161010-08:45:36.954|1128=9|45=151|58=Tag specified without a value|371=1|372=D|373=4|10=187|8=FIXT.1.1|9=203|35=D|34=152|49=NEGFIXFIX1|56=FGW|52=20161010-08:45:36.949|11=1476089137089|1=	|48=8033001|22=8|40=2|59=0|54=1|38=500|1138=500|44=25|581=1|528=A|60=20161010-09:45:36.917|453=1|448=NEGFIXFIX1|447=D|452=76|10=221|8=FIXT.1.1|9=125|35=3|49=FGW|56=NEGFIXFIX1|34=153|52=20161010-08:45:36.986|1128=9|45=152|58=Incorrect data format for value|371=1|372=D|373=6|10=156|8=FIXT.1.1|9=211|35=D|34=153|49=NEGFIXFIX1|56=FGW|52=20161010-08:45:36.964|11=1476089137137|1=one|1=two|48=8033001|22=8|40=2|59=0|54=1|38=500|1138=500|44=25|581=1|528=A|60=20161010-09:45:36.964|453=1|448=NEGFIXFIX1|447=D|452=76|10=216|8=FIXT.1.1|9=121|35=3|49=FGW|56=NEGFIXFIX1|34=154|52=20161010-08:45:37.009|1128=9|45=153|58=Tag appears more than once|371=1|372=D|373=13|10=150|8=FIXT.1.1|9=144|35=q|34=154|49=NEGFIXFIX1|56=FGW|52=20161010-08:45:37.160|11=1476089137316|530=7|60=20161010-09:45:37.142|1461=1|1462=NEGFIXFIX1|1463=D|1464=76|10=198|8=FIXT.1.1|9=125|35=r|49=FGW|56=NEGFIXFIX1|34=155|52=20161010-08:45:37.212|1128=9|1369=O132zNg_39|11=1476089137316|1180=1|30001=1|530=7|531=7|10=232|8=FIXT.1.1|9=116|35=Z|34=155|49=NEGFIXFIX1|56=FGW|52=20161010-08:45:37.207|1166=1476089137367|298=4|1461=1|1462=NEGFIX|1463=D|1464=1|10=006|8=FIXT.1.1|9=167|35=b|49=FGW|56=NEGFIXFIX1|34=156|52=20161010-08:45:37.259|1128=9|117=1476089137367|298=4|297=5|300=2002|58=User not registered to mass cancel interest for firm|1180=1|10=161|8=FIXT.1.1|9=188|35=D|34=156|49=NEGFIXFIX1|56=FGW|52=20161010-08:45:37.255|11=1476089137431|22=8|40=2|59=0|54=1|38=500|1138=500|44=25|581=1|528=A|60=20161010-09:45:37.255|453=1|448=NEGFIXFIX1|447=D|452=76|10=086|8=FIXT.1.1|9=115|35=3|49=FGW|56=NEGFIXFIX1|34=157|52=20161010-08:45:37.319|1128=9|45=156|58=Required tag missing|371=48|372=D|373=1|10=215|8=FIXT.1.1|9=218|35=D|34=157|49=NEGFIXFIX1|56=FGW|52=20161010-08:45:37.297|11=1476089137467|48=A12345678901234567890A1234|22=8|40=2|59=0|54=1|38=500|1138=500|44=25|581=1|528=A|60=20161010-09:45:37.290|453=1|448=NEGFIXFIX1|447=D|452=76|10=111|8=FIXT.1.1|9=141|35=3|49=FGW|56=NEGFIXFIX1|34=158|52=20161010-08:45:37.361|1128=9|45=157|58=Value is incorrect (out of range) for this tag|371=48|372=D|373=5|10=138|8=FIXT.1.1|9=192|35=D|34=158|49=NEGFIXFIX1|56=FGW|52=20161010-08:45:38.384|11=1476089138546|48=|22=8|40=2|59=0|54=1|38=500|1138=500|44=25|581=1|528=A|60=20161010-09:45:38.368|453=1|448=NEGFIXFIX1|447=D|452=76|10=015|8=FIXT.1.1|9=124|35=3|49=FGW|56=NEGFIXFIX1|34=159|52=20161010-08:45:38.430|1128=9|45=158|58=Tag specified without a value|371=48|372=D|373=4|10=252|8=FIXT.1.1|9=193|35=D|34=159|49=NEGFIXFIX1|56=FGW|52=20161010-08:45:38.430|11=1476089138609|48=	|22=8|40=2|59=0|54=1|38=500|1138=500|44=25|581=1|528=A|60=20161010-09:45:38.430|453=1|448=NEGFIXFIX1|447=D|452=76|10=008|8=FIXT.1.1|9=126|35=3|49=FGW|56=NEGFIXFIX1|34=160|52=20161010-08:45:38.478|1128=9|45=159|58=Incorrect data format for value|371=48|372=D|373=6|10=219|8=FIXT.1.1|9=195|35=D|34=160|49=NEGFIXFIX1|56=FGW|52=20161010-08:45:38.459|11=1476089138631|48=AGL|22=8|40=2|59=0|54=1|38=500|1138=500|44=25|581=1|528=A|60=20161010-09:45:38.451|453=1|448=NEGFIXFIX1|447=D|452=76|10=214|8=FIXT.1.1|9=131|35=j|49=FGW|56=NEGFIXFIX1|34=161|52=20161010-08:45:38.524|1128=9|45=160|372=D|379=1476089138631|380=2|58=Unknown SecurityID|371=48|10=200|8=FIXT.1.1|9=217|35=D|34=161|49=NEGFIXFIX1|56=FGW|52=20161010-08:45:38.500|11=1476089138674|48=A12345678901234567890A123|22=8|40=2|59=0|54=1|38=500|1138=500|44=25|581=1|528=A|60=20161010-09:45:38.493|453=1|448=NEGFIXFIX1|447=D|452=76|10=048|8=FIXT.1.1|9=131|35=j|49=FGW|56=NEGFIXFIX1|34=162|52=20161010-08:45:38.564|1128=9|45=161|372=D|379=1476089138674|380=2|58=Unknown SecurityID|371=48|10=213|8=FIXT.1.1|9=210|35=D|34=162|49=NEGFIXFIX1|56=FGW|52=20161010-08:45:38.565|11=1476089138731|48=8033001|48=8033001|22=8|40=2|59=0|54=1|38=500|1138=500|44=25|581=1|528=A|60=20161010-09:45:38.549|453=1|448=NEGFIXFIX1|447=D|452=76|10=103|8=FIXT.1.1|9=122|35=3|49=FGW|56=NEGFIXFIX1|34=163|52=20161010-08:45:38.603|1128=9|45=162|58=Tag appears more than once|371=48|372=D|373=13|10=211|8=FIXT.1.1|9=144|35=q|34=163|49=NEGFIXFIX1|56=FGW|52=20161010-08:45:38.832|11=1476089139015|530=7|60=20161010-09:45:38.832|1461=1|1462=NEGFIXFIX1|1463=D|1464=76|10=210|8=FIXT.1.1|9=125|35=r|49=FGW|56=NEGFIXFIX1|34=164|52=20161010-08:45:38.877|1128=9|1369=O132zNg_41|11=1476089139015|1180=1|30001=1|530=7|531=7|10=241|8=FIXT.1.1|9=116|35=Z|34=164|49=NEGFIXFIX1|56=FGW|52=20161010-08:45:38.849|1166=1476089139033|298=4|1461=1|1462=NEGFIX|1463=D|1464=1|10=011|8=FIXT.1.1|9=167|35=b|49=FGW|56=NEGFIXFIX1|34=165|52=20161010-08:45:38.925|1128=9|117=1476089139033|298=4|297=5|300=2002|58=User not registered to mass cancel interest for firm|1180=1|10=154|8=FIXT.1.1|9=194|35=D|34=165|49=NEGFIXFIX1|56=FGW|52=20161010-08:45:38.899|11=1476089139078|48=8033001|40=2|59=0|54=1|38=500|1138=500|44=25|581=1|528=A|60=20161010-09:45:38.893|453=1|448=NEGFIXFIX1|447=D|452=76|10=163|8=FIXT.1.1|9=115|35=3|49=FGW|56=NEGFIXFIX1|34=166|52=20161010-08:45:38.963|1128=9|45=165|58=Required tag missing|371=22|372=D|373=1|10=213|8=FIXT.1.1|9=198|35=D|34=166|49=NEGFIXFIX1|56=FGW|52=20161010-08:45:38.942|11=1476089139119|48=8033001|22=|40=2|59=0|54=1|38=500|1138=500|44=25|581=1|528=A|60=20161010-09:45:38.933|453=1|448=NEGFIXFIX1|447=D|452=76|10=054|8=FIXT.1.1|9=124|35=3|49=FGW|56=NEGFIXFIX1|34=167|52=20161010-08:45:39.006|1128=9|45=166|58=Tag specified without a value|371=22|372=D|373=4|10=242|8=FIXT.1.1|9=199|35=D|34=167|49=NEGFIXFIX1|56=FGW|52=20161010-08:45:38.983|11=1476089139164|48=8033001|22=	|40=2|59=0|54=1|38=500|1138=500|44=25|581=1|528=A|60=20161010-09:45:38.977|453=1|448=NEGFIXFIX1|447=D|452=76|10=078|8=FIXT.1.1|9=126|35=3|49=FGW|56=NEGFIXFIX1|34=168|52=20161010-08:45:39.047|1128=9|45=167|58=Incorrect data format for value|371=22|372=D|373=6|10=211|8=FIXT.1.1|9=200|35=D|34=168|49=NEGFIXFIX1|56=FGW|52=20161010-08:45:39.031|11=1476089139212|48=8033001|22=88|40=2|59=0|54=1|38=500|1138=500|44=25|581=1|528=A|60=20161010-09:45:39.024|453=1|448=NEGFIXFIX1|447=D|452=76|10=128|8=FIXT.1.1|9=141|35=3|49=FGW|56=NEGFIXFIX1|34=169|52=20161010-08:45:39.094|1128=9|45=168|58=Value is incorrect (out of range) for this tag|371=22|372=D|373=5|10=139|8=FIXT.1.1|9=199|35=D|34=169|49=NEGFIXFIX1|56=FGW|52=20161010-08:45:40.123|11=1476089140312|48=8033001|22=1|40=2|59=0|54=1|38=500|1138=500|44=25|581=1|528=A|60=20161010-09:45:40.123|453=1|448=NEGFIXFIX1|447=D|452=76|10=062|8=FIXT.1.1|9=141|35=3|49=FGW|56=NEGFIXFIX1|34=170|52=20161010-08:45:40.167|1128=9|372=D|45=169|371=22|373=5|58=Value is incorrect (out of range) for this tag|10=125|8=FIXT.1.1|9=199|35=D|34=170|49=NEGFIXFIX1|56=FGW|52=20161010-08:45:40.170|11=1476089140344|48=8033001|22=2|40=2|59=0|54=1|38=500|1138=500|44=25|581=1|528=A|60=20161010-09:45:40.154|453=1|448=NEGFIXFIX1|447=D|452=76|10=066|8=FIXT.1.1|9=141|35=3|49=FGW|56=NEGFIXFIX1|34=171|52=20161010-08:45:40.211|1128=9|372=D|45=170|371=22|373=5|58=Value is incorrect (out of range) for this tag|10=108|8=FIXT.1.1|9=199|35=D|34=171|49=NEGFIXFIX1|56=FGW|52=20161010-08:45:40.199|11=1476089140384|48=8033001|22=3|40=2|59=0|54=1|38=500|1138=500|44=25|581=1|528=A|60=20161010-09:45:40.193|453=1|448=NEGFIXFIX1|447=D|452=76|10=086|8=FIXT.1.1|9=141|35=3|49=FGW|56=NEGFIXFIX1|34=172|52=20161010-08:45:40.263|1128=9|372=D|45=171|371=22|373=5|58=Value is incorrect (out of range) for this tag|10=117|8=FIXT.1.1|9=199|35=D|34=172|49=NEGFIXFIX1|56=FGW|52=20161010-08:45:40.278|11=1476089140462|48=8033001|22=4|40=2|59=0|54=1|38=500|1138=500|44=25|581=1|528=A|60=20161010-09:45:40.270|453=1|448=NEGFIXFIX1|447=D|452=76|10=079|8=FIXT.1.1|9=141|35=3|49=FGW|56=NEGFIXFIX1|34=173|52=20161010-08:45:40.342|1128=9|372=D|45=172|371=22|373=5|58=Value is incorrect (out of range) for this tag|10=117|8=FIXT.1.1|9=199|35=D|34=173|49=NEGFIXFIX1|56=FGW|52=20161010-08:45:40.332|11=1476089140516|48=8033001|22=5|40=2|59=0|54=1|38=500|1138=500|44=25|581=1|528=A|60=20161010-09:45:40.323|453=1|448=NEGFIXFIX1|447=D|452=76|10=071|8=FIXT.1.1|9=141|35=3|49=FGW|56=NEGFIXFIX1|34=174|52=20161010-08:45:40.396|1128=9|372=D|45=173|371=22|373=5|58=Value is incorrect (out of range) for this tag|10=128|8=FIXT.1.1|9=199|35=D|34=174|49=NEGFIXFIX1|56=FGW|52=20161010-08:45:40.400|11=1476089140579|48=8033001|22=6|40=2|59=0|54=1|38=500|1138=500|44=25|581=1|528=A|60=20161010-09:45:40.385|453=1|448=NEGFIXFIX1|447=D|452=76|10=086|8=FIXT.1.1|9=141|35=3|49=FGW|56=NEGFIXFIX1|34=175|52=20161010-08:45:40.438|1128=9|372=D|45=174|371=22|373=5|58=Value is incorrect (out of range) for this tag|10=127|8=FIXT.1.1|9=199|35=D|34=175|49=NEGFIXFIX1|56=FGW|52=20161010-08:45:40.432|11=1476089140627|48=8033001|22=7|40=2|59=0|54=1|38=500|1138=500|44=25|581=1|528=A|60=20161010-09:45:40.432|453=1|448=NEGFIXFIX1|447=D|452=76|10=080|8=FIXT.1.1|9=141|35=3|49=FGW|56=NEGFIXFIX1|34=176|52=20161010-08:45:40.480|1128=9|372=D|45=175|371=22|373=5|58=Value is incorrect (out of range) for this tag|10=126|8=FIXT.1.1|9=199|35=D|34=176|49=NEGFIXFIX1|56=FGW|52=20161010-08:45:40.461|11=1476089140649|48=8033001|22=9|40=2|59=0|54=1|38=500|1138=500|44=25|581=1|528=A|60=20161010-09:45:40.453|453=1|448=NEGFIXFIX1|447=D|452=76|10=092|8=FIXT.1.1|9=141|35=3|49=FGW|56=NEGFIXFIX1|34=177|52=20161010-08:45:40.525|1128=9|372=D|45=176|371=22|373=5|58=Value is incorrect (out of range) for this tag|10=128|8=FIXT.1.1|9=199|35=D|34=177|49=NEGFIXFIX1|56=FGW|52=20161010-08:45:40.503|11=1476089140694|48=8033001|22=A|40=2|59=0|54=1|38=500|1138=500|44=25|581=1|528=A|60=20161010-09:45:40.497|453=1|448=NEGFIXFIX1|447=D|452=76|10=106|8=FIXT.1.1|9=141|35=3|49=FGW|56=NEGFIXFIX1|34=178|52=20161010-08:45:40.567|1128=9|372=D|45=177|371=22|373=5|58=Value is incorrect (out of range) for this tag|10=136|8=FIXT.1.1|9=199|35=D|34=178|49=NEGFIXFIX1|56=FGW|52=20161010-08:45:40.545|11=1476089140736|48=8033001|22=B|40=2|59=0|54=1|38=500|1138=500|44=25|581=1|528=A|60=20161010-09:45:40.538|453=1|448=NEGFIXFIX1|447=D|452=76|10=107|8=FIXT.1.1|9=141|35=3|49=FGW|56=NEGFIXFIX1|34=179|52=20161010-08:45:40.609|1128=9|372=D|45=178|371=22|373=5|58=Value is incorrect (out of range) for this tag|10=135|8=FIXT.1.1|9=199|35=D|34=179|49=NEGFIXFIX1|56=FGW|52=20161010-08:45:40.587|11=1476089140779|48=8033001|22=C|40=2|59=0|54=1|38=500|1138=500|44=25|581=1|528=A|60=20161010-09:45:40.580|453=1|448=NEGFIXFIX1|447=D|452=76|10=119|8=FIXT.1.1|9=141|35=3|49=FGW|56=NEGFIXFIX1|34=180|52=20161010-08:45:40.651|1128=9|372=D|45=179|371=22|373=5|58=Value is incorrect (out of range) for this tag|10=125|8=FIXT.1.1|9=199|35=D|34=180|49=NEGFIXFIX1|56=FGW|52=20161010-08:45:40.651|11=1476089140835|48=8033001|22=D|40=2|59=0|54=1|38=500|1138=500|44=25|581=1|528=A|60=20161010-09:45:40.635|453=1|448=NEGFIXFIX1|447=D|452=76|10=098|8=FIXT.1.1|9=141|35=3|49=FGW|56=NEGFIXFIX1|34=181|52=20161010-08:45:40.691|1128=9|372=D|45=180|371=22|373=5|58=Value is incorrect (out of range) for this tag|10=122|8=FIXT.1.1|9=199|35=D|34=181|49=NEGFIXFIX1|56=FGW|52=20161010-08:45:40.670|11=1476089140864|48=8033001|22=E|40=2|59=0|54=1|38=500|1138=500|44=25|581=1|528=A|60=20161010-09:45:40.663|453=1|448=NEGFIXFIX1|447=D|452=76|10=104|8=FIXT.1.1|9=141|35=3|49=FGW|56=NEGFIXFIX1|34=182|52=20161010-08:45:40.734|1128=9|372=D|45=181|371=22|373=5|58=Value is incorrect (out of range) for this tag|10=122|8=FIXT.1.1|9=199|35=D|34=182|49=NEGFIXFIX1|56=FGW|52=20161010-08:45:40.721|11=1476089140915|48=8033001|22=F|40=2|59=0|54=1|38=500|1138=500|44=25|581=1|528=A|60=20161010-09:45:40.713|453=1|448=NEGFIXFIX1|447=D|452=76|10=096|8=FIXT.1.1|9=141|35=3|49=FGW|56=NEGFIXFIX1|34=183|52=20161010-08:45:40.785|1128=9|372=D|45=182|371=22|373=5|58=Value is incorrect (out of range) for this tag|10=130|8=FIXT.1.1|9=199|35=D|34=183|49=NEGFIXFIX1|56=FGW|52=20161010-08:45:40.776|11=1476089140972|48=8033001|22=G|40=2|59=0|54=1|38=500|1138=500|44=25|581=1|528=A|60=20161010-09:45:40.769|453=1|448=NEGFIXFIX1|447=D|452=76|10=122|8=FIXT.1.1|9=141|35=3|49=FGW|56=NEGFIXFIX1|34=184|52=20161010-08:45:40.840|1128=9|372=D|45=183|371=22|373=5|58=Value is incorrect (out of range) for this tag|10=124|8=FIXT.1.1|9=199|35=D|34=184|49=NEGFIXFIX1|56=FGW|52=20161010-08:45:40.829|11=1476089141026|48=8033001|22=H|40=2|59=0|54=1|38=500|1138=500|44=25|581=1|528=A|60=20161010-09:45:40.822|453=1|448=NEGFIXFIX1|447=D|452=76|10=104|8=FIXT.1.1|9=141|35=3|49=FGW|56=NEGFIXFIX1|34=185|52=20161010-08:45:40.894|1128=9|372=D|45=184|371=22|373=5|58=Value is incorrect (out of range) for this tag|10=135|8=FIXT.1.1|9=199|35=D|34=185|49=NEGFIXFIX1|56=FGW|52=20161010-08:45:40.877|11=1476089141075|48=8033001|22=I|40=2|59=0|54=1|38=500|1138=500|44=25|581=1|528=A|60=20161010-09:45:40.870|453=1|448=NEGFIXFIX1|447=D|452=76|10=116|8=FIXT.1.1|9=141|35=3|49=FGW|56=NEGFIXFIX1|34=186|52=20161010-08:45:40.941|1128=9|372=D|45=185|371=22|373=5|58=Value is incorrect (out of range) for this tag|10=130|8=FIXT.1.1|9=199|35=D|34=186|49=NEGFIXFIX1|56=FGW|52=20161010-08:45:40.918|11=1476089141118|48=8033001|22=J|40=2|59=0|54=1|38=500|1138=500|44=25|581=1|528=A|60=20161010-09:45:40.912|453=1|448=NEGFIXFIX1|447=D|452=76|10=109|8=FIXT.1.1|9=141|35=3|49=FGW|56=NEGFIXFIX1|34=187|52=20161010-08:45:40.983|1128=9|372=D|45=186|371=22|373=5|58=Value is incorrect (out of range) for this tag|10=138|8=FIXT.1.1|9=199|35=D|34=187|49=NEGFIXFIX1|56=FGW|52=20161010-08:45:40.961|11=1476089141161|48=8033001|22=K|40=2|59=0|54=1|38=500|1138=500|44=25|581=1|528=A|60=20161010-09:45:40.954|453=1|448=NEGFIXFIX1|447=D|452=76|10=113|8=FIXT.1.1|9=141|35=3|49=FGW|56=NEGFIXFIX1|34=188|52=20161010-08:45:41.026|1128=9|372=D|45=187|371=22|373=5|58=Value is incorrect (out of range) for this tag|10=129|8=FIXT.1.1|9=199|35=D|34=188|49=NEGFIXFIX1|56=FGW|52=20161010-08:45:41.007|11=1476089141208|48=8033001|22=L|40=2|59=0|54=1|38=500|1138=500|44=25|581=1|528=A|60=20161010-09:45:41.000|453=1|448=NEGFIXFIX1|447=D|452=76|10=092|8=FIXT.1.1|9=141|35=3|49=FGW|56=NEGFIXFIX1|34=189|52=20161010-08:45:41.072|1128=9|372=D|45=188|371=22|373=5|58=Value is incorrect (out of range) for this tag|10=132|8=FIXT.1.1|9=199|35=D|34=189|49=NEGFIXFIX1|56=FGW|52=20161010-08:45:41.059|11=1476089141267|48=8033001|22=M|40=2|59=0|54=1|38=500|1138=500|44=25|581=1|528=A|60=20161010-09:45:41.058|453=1|448=NEGFIXFIX1|447=D|452=76|10=119|8=FIXT.1.1|9=141|35=3|49=FGW|56=NEGFIXFIX1|34=190|52=20161010-08:45:41.113|1128=9|372=D|45=189|371=22|373=5|58=Value is incorrect (out of range) for this tag|10=121|8=FIXT.1.1|9=204|35=D|34=190|49=NEGFIXFIX1|56=FGW|52=20161010-08:45:41.101|11=1476089141304|48=8033001|22=8|22=8|40=2|59=0|54=1|38=500|1138=500|44=25|581=1|528=A|60=20161010-09:45:41.094|453=1|448=NEGFIXFIX1|447=D|452=76|10=019|8=FIXT.1.1|9=122|35=3|49=FGW|56=NEGFIXFIX1|34=191|52=20161010-08:45:41.165|1128=9|45=190|58=Tag appears more than once|371=22|372=D|373=13|10=202|8=FIXT.1.1|9=144|35=q|34=191|49=NEGFIXFIX1|56=FGW|52=20161010-08:45:41.641|11=1476089141847|530=7|60=20161010-09:45:41.636|1461=1|1462=NEGFIXFIX1|1463=D|1464=76|10=205|8=FIXT.1.1|9=125|35=r|49=FGW|56=NEGFIXFIX1|34=192|52=20161010-08:45:41.707|1128=9|1369=O132zNg_43|11=1476089141847|1180=1|30001=1|530=7|531=7|10=236|8=FIXT.1.1|9=116|35=Z|34=192|49=NEGFIXFIX1|56=FGW|52=20161010-08:45:41.680|1166=1476089141889|298=4|1461=1|1462=NEGFIX|1463=D|1464=1|10=011|8=FIXT.1.1|9=167|35=b|49=FGW|56=NEGFIXFIX1|34=193|52=20161010-08:45:41.759|1128=9|117=1476089141889|298=4|297=5|300=2002|58=User not registered to mass cancel interest for firm|1180=1|10=166|8=FIXT.1.1|9=194|35=D|34=193|49=NEGFIXFIX1|56=FGW|52=20161010-08:45:41.734|11=1476089141940|48=8033001|22=8|59=0|54=1|38=500|1138=500|44=25|581=1|528=A|60=20161010-09:45:41.728|453=1|448=NEGFIXFIX1|447=D|452=76|10=134|8=FIXT.1.1|9=115|35=3|49=FGW|56=NEGFIXFIX1|34=194|52=20161010-08:45:41.798|1128=9|45=193|58=Required tag missing|371=40|372=D|373=1|10=215|8=FIXT.1.1|9=198|35=D|34=194|49=NEGFIXFIX1|56=FGW|52=20161010-08:45:41.776|11=1476089141983|48=8033001|22=8|40=|59=0|54=1|38=500|1138=500|44=25|581=1|528=A|60=20161010-09:45:41.769|453=1|448=NEGFIXFIX1|447=D|452=76|10=063|8=FIXT.1.1|9=124|35=3|49=FGW|56=NEGFIXFIX1|34=195|52=20161010-08:45:41.846|1128=9|45=194|58=Tag specified without a value|371=40|372=D|373=4|10=249|8=FIXT.1.1|9=199|35=D|34=195|49=NEGFIXFIX1|56=FGW|52=20161010-08:45:41.826|11=1476089142033|48=8033001|22=8|40=	|59=0|54=1|38=500|1138=500|44=25|581=1|528=A|60=20161010-09:45:41.818|453=1|448=NEGFIXFIX1|447=D|452=76|10=052|8=FIXT.1.1|9=126|35=3|49=FGW|56=NEGFIXFIX1|34=196|52=20161010-08:45:41.890|1128=9|45=195|58=Incorrect data format for value|371=40|372=D|373=6|10=212|8=FIXT.1.1|9=200|35=D|34=196|49=NEGFIXFIX1|56=FGW|52=20161010-08:45:41.871|11=1476089142081|48=8033001|22=8|40=88|59=0|54=1|38=500|1138=500|44=25|581=1|528=A|60=20161010-09:45:41.865|453=1|448=NEGFIXFIX1|447=D|452=76|10=144|8=FIXT.1.1|9=141|35=3|49=FGW|56=NEGFIXFIX1|34=197|52=20161010-08:45:41.935|1128=9|45=196|58=Value is incorrect (out of range) for this tag|371=40|372=D|373=5|10=138|8=FIXT.1.1|9=199|35=D|34=197|49=NEGFIXFIX1|56=FGW|52=20161010-08:45:42.951|11=1476089143162|48=8033001|22=8|40=5|59=0|54=1|38=500|1138=500|44=25|581=1|528=A|60=20161010-09:45:42.945|453=1|448=NEGFIXFIX1|447=D|452=76|10=104|8=FIXT.1.1|9=141|35=3|49=FGW|56=NEGFIXFIX1|34=198|52=20161010-08:45:43.016|1128=9|372=D|45=197|371=40|373=5|58=Value is incorrect (out of range) for this tag|10=132|8=FIXT.1.1|9=199|35=D|34=198|49=NEGFIXFIX1|56=FGW|52=20161010-08:45:42.996|11=1476089143207|48=8033001|22=8|40=6|59=0|54=1|38=500|1138=500|44=25|581=1|528=A|60=20161010-09:45:42.989|453=1|448=NEGFIXFIX1|447=D|452=76|10=123|8=FIXT.1.1|9=372|35=8|49=FGW|56=NEGFIXFIX1|34=199|52=20161010-08:45:43.063|1128=9|17=E0SwGXhF2Q8X|11=1476089143207|278=O0SwGcXHc6aD|37=O0SwGcXHc6aD|150=8|39=8|103=111202|58=Invalid order type (un-priced limit order with limit price)|151=0|14=0|48=8033001|22=8|453=1|448=NEGFIXFIX1|447=D|452=76|40=6|59=0|54=1|38=500|1138=0|44=25|528=A|60=20161010-08:45:43.061|1180=1|30001=1|581=1|20000=2|10=162|8=FIXT.1.1|9=199|35=D|34=199|49=NEGFIXFIX1|56=FGW|52=20161010-08:45:44.083|11=1476089144287|48=8033001|22=8|40=7|59=0|54=1|38=500|1138=500|44=25|581=1|528=A|60=20161010-09:45:44.068|453=1|448=NEGFIXFIX1|447=D|452=76|10=113|8=FIXT.1.1|9=141|35=3|49=FGW|56=NEGFIXFIX1|34=200|52=20161010-08:45:44.123|1128=9|372=D|45=199|371=40|373=5|58=Value is incorrect (out of range) for this tag|10=118|8=FIXT.1.1|9=199|35=D|34=200|49=NEGFIXFIX1|56=FGW|52=20161010-08:45:44.114|11=1476089144334|48=8033001|22=8|40=9|59=0|54=1|38=500|1138=500|44=25|581=1|528=A|60=20161010-09:45:44.114|453=1|448=NEGFIXFIX1|447=D|452=76|10=078|8=FIXT.1.1|9=141|35=3|49=FGW|56=NEGFIXFIX1|34=201|52=20161010-08:45:44.164|1128=9|372=D|45=200|371=40|373=5|58=Value is incorrect (out of range) for this tag|10=107|8=FIXT.1.1|9=199|35=D|34=201|49=NEGFIXFIX1|56=FGW|52=20161010-08:45:44.141|11=1476089144354|48=8033001|22=8|40=A|59=0|54=1|38=500|1138=500|44=25|581=1|528=A|60=20161010-09:45:44.133|453=1|448=NEGFIXFIX1|447=D|452=76|10=090|8=FIXT.1.1|9=141|35=3|49=FGW|56=NEGFIXFIX1|34=202|52=20161010-08:45:44.206|1128=9|372=D|45=201|371=40|373=5|58=Value is incorrect (out of range) for this tag|10=106|8=FIXT.1.1|9=199|35=D|34=202|49=NEGFIXFIX1|56=FGW|52=20161010-08:45:44.182|11=1476089144398|48=8033001|22=8|40=B|59=0|54=1|38=500|1138=500|44=25|581=1|528=A|60=20161010-09:45:44.176|453=1|448=NEGFIXFIX1|447=D|452=76|10=112|8=FIXT.1.1|9=141|35=3|49=FGW|56=NEGFIXFIX1|34=203|52=20161010-08:45:44.247|1128=9|372=D|45=202|371=40|373=5|58=Value is incorrect (out of range) for this tag|10=113|8=FIXT.1.1|9=199|35=D|34=203|49=NEGFIXFIX1|56=FGW|52=20161010-08:45:44.226|11=1476089144439|48=8033001|22=8|40=C|59=0|54=1|38=500|1138=500|44=25|581=1|528=A|60=20161010-09:45:44.216|453=1|448=NEGFIXFIX1|447=D|452=76|10=104|8=FIXT.1.1|9=141|35=3|49=FGW|56=NEGFIXFIX1|34=204|52=20161010-08:45:44.291|1128=9|372=D|45=203|371=40|373=5|58=Value is incorrect (out of range) for this tag|10=114|8=FIXT.1.1|9=199|35=D|34=204|49=NEGFIXFIX1|56=FGW|52=20161010-08:45:44.267|11=1476089144485|48=8033001|22=8|40=D|59=0|54=1|38=500|1138=500|44=25|581=1|528=A|60=20161010-09:45:44.261|453=1|448=NEGFIXFIX1|447=D|452=76|10=112|8=FIXT.1.1|9=141|35=3|49=FGW|56=NEGFIXFIX1|34=205|52=20161010-08:45:44.332|1128=9|372=D|45=204|371=40|373=5|58=Value is incorrect (out of range) for this tag|10=112|8=FIXT.1.1|9=199|35=D|34=205|49=NEGFIXFIX1|56=FGW|52=20161010-08:45:44.310|11=1476089144528|48=8033001|22=8|40=E|59=0|54=1|38=500|1138=500|44=25|581=1|528=A|60=20161010-09:45:44.303|453=1|448=NEGFIXFIX1|447=D|452=76|10=098|8=FIXT.1.1|9=141|35=3|49=FGW|56=NEGFIXFIX1|34=206|52=20161010-08:45:44.374|1128=9|372=D|45=205|371=40|373=5|58=Value is incorrect (out of range) for this tag|10=120|8=FIXT.1.1|9=199|35=D|34=206|49=NEGFIXFIX1|56=FGW|52=20161010-08:45:44.355|11=1476089144574|48=8033001|22=8|40=F|59=0|54=1|38=500|1138=500|44=25|581=1|528=A|60=20161010-09:45:44.348|453=1|448=NEGFIXFIX1|447=D|452=76|10=119|8=FIXT.1.1|9=141|35=3|49=FGW|56=NEGFIXFIX1|34=207|52=20161010-08:45:44.419|1128=9|372=D|45=206|371=40|373=5|58=Value is incorrect (out of range) for this tag|10=122|8=FIXT.1.1|9=199|35=D|34=207|49=NEGFIXFIX1|56=FGW|52=20161010-08:45:44.396|11=1476089144616|48=8033001|22=8|40=G|59=0|54=1|38=500|1138=500|44=25|581=1|528=A|60=20161010-09:45:44.389|453=1|448=NEGFIXFIX1|447=D|452=76|10=128|8=FIXT.1.1|9=141|35=3|49=FGW|56=NEGFIXFIX1|34=208|52=20161010-08:45:44.460|1128=9|372=D|45=207|371=40|373=5|58=Value is incorrect (out of range) for this tag|10=120|8=FIXT.1.1|9=199|35=D|34=208|49=NEGFIXFIX1|56=FGW|52=20161010-08:45:44.459|11=1476089144687|48=8033001|22=8|40=H|59=0|54=1|38=500|1138=500|44=25|581=1|528=A|60=20161010-09:45:44.459|453=1|448=NEGFIXFIX1|447=D|452=76|10=136|8=FIXT.1.1|9=141|35=3|49=FGW|56=NEGFIXFIX1|34=209|52=20161010-08:45:44.500|1128=9|372=D|45=208|371=40|373=5|58=Value is incorrect (out of range) for this tag|10=117|8=FIXT.1.1|9=199|35=D|34=209|49=NEGFIXFIX1|56=FGW|52=20161010-08:45:44.490|11=1476089144703|48=8033001|22=8|40=I|59=0|54=1|38=500|1138=500|44=25|581=1|528=A|60=20161010-09:45:44.474|453=1|448=NEGFIXFIX1|447=D|452=76|10=119|8=FIXT.1.1|9=141|35=3|49=FGW|56=NEGFIXFIX1|34=210|52=20161010-08:45:44.524|1128=9|372=D|45=209|371=40|373=5|58=Value is incorrect (out of range) for this tag|10=116|8=FIXT.1.1|9=199|35=D|34=210|49=NEGFIXFIX1|56=FGW|52=20161010-08:45:44.505|11=1476089144735|48=8033001|22=8|40=J|59=0|54=1|38=500|1138=500|44=25|581=1|528=A|60=20161010-09:45:44.505|453=1|448=NEGFIXFIX1|447=D|452=76|10=109|8=FIXT.1.1|9=146|35=j|49=FGW|56=NEGFIXFIX1|34=211|52=20161010-08:45:44.548|1128=9|45=210|372=D|379=1476089144735|380=5|58=Trigger Price unset for MIT order|371=99|10=194|8=FIXT.1.1|9=199|35=D|34=211|49=NEGFIXFIX1|56=FGW|52=20161010-08:45:45.536|11=1476089145758|48=8033001|22=8|40=L|59=0|54=1|38=500|1138=500|44=25|581=1|528=A|60=20161010-09:45:45.527|453=1|448=NEGFIXFIX1|447=D|452=76|10=128|8=FIXT.1.1|9=141|35=3|49=FGW|56=NEGFIXFIX1|34=212|52=20161010-08:45:45.601|1128=9|372=D|45=211|371=40|373=5|58=Value is incorrect (out of range) for this tag|10=108|8=FIXT.1.1|9=199|35=D|34=212|49=NEGFIXFIX1|56=FGW|52=20161010-08:45:45.579|11=1476089145805|48=8033001|22=8|40=M|59=0|54=1|38=500|1138=500|44=25|581=1|528=A|60=20161010-09:45:45.573|453=1|448=NEGFIXFIX1|447=D|452=76|10=131|8=FIXT.1.1|9=141|35=3|49=FGW|56=NEGFIXFIX1|34=213|52=20161010-08:45:45.644|1128=9|372=D|45=212|371=40|373=5|58=Value is incorrect (out of range) for this tag|10=117|8=FIXT.1.1|9=199|35=D|34=213|49=NEGFIXFIX1|56=FGW|52=20161010-08:45:45.621|11=1476089145846|48=8033001|22=8|40=Q|59=0|54=1|38=500|1138=500|44=25|581=1|528=A|60=20161010-09:45:45.613|453=1|448=NEGFIXFIX1|447=D|452=76|10=124|8=FIXT.1.1|9=141|35=3|49=FGW|56=NEGFIXFIX1|34=214|52=20161010-08:45:45.685|1128=9|372=D|45=213|371=40|373=5|58=Value is incorrect (out of range) for this tag|10=124|8=FIXT.1.1|9=199|35=D|34=214|49=NEGFIXFIX1|56=FGW|52=20161010-08:45:45.668|11=1476089145895|48=8033001|22=8|40=k|59=0|54=1|38=500|1138=500|44=25|581=1|528=A|60=20161010-09:45:45.661|453=1|448=NEGFIXFIX1|447=D|452=76|10=169|8=FIXT.1.1|9=141|35=3|49=FGW|56=NEGFIXFIX1|34=215|52=20161010-08:45:45.734|1128=9|372=D|45=214|371=40|373=5|58=Value is incorrect (out of range) for this tag|10=121|8=FIXT.1.1|9=199|35=D|34=215|49=NEGFIXFIX1|56=FGW|52=20161010-08:45:45.702|11=1476089145934|48=8033001|22=8|40=p|59=0|54=1|38=500|1138=500|44=25|581=1|528=A|60=20161010-09:45:45.699|453=1|448=NEGFIXFIX1|447=D|452=76|10=169|8=FIXT.1.1|9=141|35=3|49=FGW|56=NEGFIXFIX1|34=216|52=20161010-08:45:45.766|1128=9|372=D|45=215|371=40|373=5|58=Value is incorrect (out of range) for this tag|10=128|8=FIXT.1.1|9=204|35=D|34=216|49=NEGFIXFIX1|56=FGW|52=20161010-08:45:45.743|11=1476089145972|48=8033001|22=8|40=1|40=2|59=0|54=1|38=500|1138=500|44=25|581=1|528=A|60=20161010-09:45:45.736|453=1|448=NEGFIXFIX1|447=D|452=76|10=049|8=FIXT.1.1|9=122|35=3|49=FGW|56=NEGFIXFIX1|34=217|52=20161010-08:45:45.808|1128=9|45=216|58=Tag appears more than once|371=40|372=D|373=13|10=208|8=FIXT.1.1|9=144|35=q|34=217|49=NEGFIXFIX1|56=FGW|52=20161010-08:45:46.215|11=1476089146448|530=7|60=20161010-09:45:46.211|1461=1|1462=NEGFIXFIX1|1463=D|1464=76|10=202|8=FIXT.1.1|9=125|35=r|49=FGW|56=NEGFIXFIX1|34=218|52=20161010-08:45:46.283|1128=9|1369=O132zNg_45|11=1476089146448|1180=1|30001=1|530=7|531=7|10=243|8=FIXT.1.1|9=116|35=Z|34=218|49=NEGFIXFIX1|56=FGW|52=20161010-08:45:46.273|1166=1476089146507|298=4|1461=1|1462=NEGFIX|1463=D|1464=1|10=005|8=FIXT.1.1|9=167|35=b|49=FGW|56=NEGFIXFIX1|34=219|52=20161010-08:45:46.353|1128=9|117=1476089146507|298=4|297=5|300=2002|58=User not registered to mass cancel interest for firm|1180=1|10=152|8=FIXT.1.1|9=201|35=D|34=219|49=NEGFIXFIX1|56=FGW|52=20161010-08:45:46.331|11=1476089146563|48=8033001|22=8|40=2|59=0 0|54=1|38=500|1138=500|44=25|581=1|528=A|60=20161010-09:45:46.324|453=1|448=NEGFIXFIX1|447=D|452=76|10=159|8=FIXT.1.1|9=141|35=3|49=FGW|56=NEGFIXFIX1|34=220|52=20161010-08:45:46.396|1128=9|45=219|58=Value is incorrect (out of range) for this tag|371=59|372=D|373=5|10=137|8=FIXT.1.1|9=198|35=D|34=220|49=NEGFIXFIX1|56=FGW|52=20161010-08:45:47.424|11=1476089147651|48=8033001|22=8|40=2|59=|54=1|38=500|1138=500|44=25|581=1|528=A|60=20161010-09:45:47.409|453=1|448=NEGFIXFIX1|447=D|452=76|10=046|8=FIXT.1.1|9=124|35=3|49=FGW|56=NEGFIXFIX1|34=221|52=20161010-08:45:47.462|1128=9|45=220|58=Tag specified without a value|371=59|372=D|373=4|10=239|8=FIXT.1.1|9=199|35=D|34=221|49=NEGFIXFIX1|56=FGW|52=20161010-08:45:47.441|11=1476089147684|48=8033001|22=8|40=2|59=	|54=1|38=500|1138=500|44=25|581=1|528=A|60=20161010-09:45:47.441|453=1|448=NEGFIXFIX1|447=D|452=76|10=058|8=FIXT.1.1|9=126|35=3|49=FGW|56=NEGFIXFIX1|34=222|52=20161010-08:45:47.502|1128=9|45=221|58=Incorrect data format for value|371=59|372=D|373=6|10=198|8=FIXT.1.1|9=199|35=D|34=222|49=NEGFIXFIX1|56=FGW|52=20161010-08:45:47.482|11=1476089147720|48=8033001|22=8|40=2|59=5|54=1|38=500|1138=500|44=25|581=1|528=A|60=20161010-09:45:47.476|453=1|448=NEGFIXFIX1|447=D|452=76|10=107|8=FIXT.1.1|9=141|35=3|49=FGW|56=NEGFIXFIX1|34=223|52=20161010-08:45:47.547|1128=9|372=D|45=222|371=59|373=5|58=Value is incorrect (out of range) for this tag|10=133|8=FIXT.1.1|9=204|35=D|34=223|49=NEGFIXFIX1|56=FGW|52=20161010-08:45:47.526|11=1476089147764|48=8033001|22=8|40=2|59=0|59=1|54=1|38=500|1138=500|44=25|581=1|528=A|60=20161010-09:45:47.519|453=1|448=NEGFIXFIX1|447=D|452=76|10=060|8=FIXT.1.1|9=122|35=3|49=FGW|56=NEGFIXFIX1|34=224|52=20161010-08:45:47.591|1128=9|45=223|58=Tag appears more than once|371=59|372=D|373=13|10=215|8=FIXT.1.1|9=144|35=q|34=224|49=NEGFIXFIX1|56=FGW|52=20161010-08:45:47.765|11=1476089148007|530=7|60=20161010-09:45:47.760|1461=1|1462=NEGFIXFIX1|1463=D|1464=76|10=214|8=FIXT.1.1|9=125|35=r|49=FGW|56=NEGFIXFIX1|34=225|52=20161010-08:45:47.832|1128=9|1369=O132zNg_49|11=1476089148007|1180=1|30001=1|530=7|531=7|10=239|8=FIXT.1.1|9=116|35=Z|34=225|49=NEGFIXFIX1|56=FGW|52=20161010-08:45:47.799|1166=1476089148045|298=4|1461=1|1462=NEGFIX|1463=D|1464=1|10=016|8=FIXT.1.1|9=167|35=b|49=FGW|56=NEGFIXFIX1|34=226|52=20161010-08:45:47.882|1128=9|117=1476089148045|298=4|297=5|300=2002|58=User not registered to mass cancel interest for firm|1180=1|10=157|8=FIXT.1.1|9=204|35=D|34=226|49=NEGFIXFIX1|56=FGW|52=20161010-08:45:47.843|11=1476089148089|48=8033001|22=8|40=2|59=6|126=|54=1|38=500|1138=500|44=25|581=1|528=A|60=20161010-09:45:47.839|453=1|448=NEGFIXFIX1|447=D|452=76|10=071|8=FIXT.1.1|9=125|35=3|49=FGW|56=NEGFIXFIX1|34=227|52=20161010-08:45:47.907|1128=9|45=226|58=Tag specified without a value|371=126|372=D|373=4|10=043|8=FIXT.1.1|9=204|35=D|34=227|49=NEGFIXFIX1|56=FGW|52=20161010-08:45:47.866|11=1476089148114|48=8033001|22=8|40=2|59=6|432=|54=1|38=500|1138=500|44=25|581=1|528=A|60=20161010-09:45:47.863|453=1|448=NEGFIXFIX1|447=D|452=76|10=063|8=FIXT.1.1|9=125|35=3|49=FGW|56=NEGFIXFIX1|34=228|52=20161010-08:45:47.929|1128=9|45=227|58=Tag specified without a value|371=432|372=D|373=4|10=049|8=FIXT.1.1|9=215|35=D|34=228|49=NEGFIXFIX1|56=FGW|52=20161010-08:45:47.889|11=1476089148138|48=8033001|22=8|40=1|59=6|126=20141304-12:00:00|54=1|38=500|1138=500|581=1|528=A|60=20161010-09:45:47.886|453=1|448=NEGFIXFIX1|447=D|452=76|10=151|8=FIXT.1.1|9=127|35=3|49=FGW|56=NEGFIXFIX1|34=229|52=20161010-08:45:47.953|1128=9|372=D|45=228|371=126|373=6|58=Incorrect data format for value|10=010|8=FIXT.1.1|9=214|35=D|34=229|49=NEGFIXFIX1|56=FGW|52=20161010-08:45:47.914|11=1476089148162|48=8033001|22=8|40=1|59=6|126=1404435661|54=1|38=500|1138=500|99=25|581=1|528=A|60=20161010-09:45:47.909|453=1|448=NEGFIXFIX1|447=D|452=76|10=075|8=FIXT.1.1|9=127|35=3|49=FGW|56=NEGFIXFIX1|34=230|52=20161010-08:45:47.979|1128=9|372=D|45=229|371=126|373=6|58=Incorrect data format for value|10=011|8=FIXT.1.1|9=206|35=D|34=230|49=NEGFIXFIX1|56=FGW|52=20161010-08:45:47.939|11=1476089148190|48=8033001|22=8|40=1|59=6|126=20140704|54=2|38=500|1138=500|581=1|528=A|60=20161010-09:45:47.936|453=1|448=NEGFIXFIX1|447=D|452=76|10=198|8=FIXT.1.1|9=127|35=3|49=FGW|56=NEGFIXFIX1|34=231|52=20161010-08:45:48.004|1128=9|372=D|45=230|371=126|373=6|58=Incorrect data format for value|10=240|8=FIXT.1.1|9=206|35=D|34=231|49=NEGFIXFIX1|56=FGW|52=20161010-08:45:47.968|11=1476089148220|48=8033001|22=8|40=1|59=6|126=12:00:00|54=2|38=500|1138=500|581=1|528=A|60=20161010-09:45:47.965|453=1|448=NEGFIXFIX1|447=D|452=76|10=202|8=FIXT.1.1|9=127|35=3|49=FGW|56=NEGFIXFIX1|34=232|52=20161010-08:45:48.032|1128=9|372=D|45=231|371=126|373=6|58=Incorrect data format for value|10=243|8=FIXT.1.1|9=215|35=D|34=232|49=NEGFIXFIX1|56=FGW|52=20161010-08:45:47.994|11=1476089148245|48=8033001|22=8|40=1|59=6|126=12:00:00-20140704|54=2|38=500|1138=500|581=1|528=A|60=20161010-09:45:47.989|453=1|448=NEGFIXFIX1|447=D|452=76|10=150|8=FIXT.1.1|9=127|35=3|49=FGW|56=NEGFIXFIX1|34=233|52=20161010-08:45:48.058|1128=9|372=D|45=232|371=126|373=6|58=Incorrect data format for value|10=253|8=FIXT.1.1|9=221|35=D|34=233|49=NEGFIXFIX1|56=FGW|52=20161010-08:45:48.022|11=1476089148275|48=8033001|22=8|40=2|59=6|126=07042014-12:00:00|54=1|38=500|1138=500|44=25|581=1|528=A|60=20161010-09:45:48.018|453=1|448=NEGFIXFIX1|447=D|452=76|10=131|8=FIXT.1.1|9=127|35=3|49=FGW|56=NEGFIXFIX1|34=234|52=20161010-08:45:48.086|1128=9|372=D|45=233|371=126|373=6|58=Incorrect data format for value|10=000|8=FIXT.1.1|9=224|35=D|34=234|49=NEGFIXFIX1|56=FGW|52=20161010-08:45:48.046|11=1476089148301|48=8033001|22=8|40=2|59=6|126=20140704-03:00:00 PM|54=1|38=500|1138=500|44=25|581=1|528=A|60=20161010-09:45:48.043|453=1|448=NEGFIXFIX1|447=D|452=76|10=062|8=FIXT.1.1|9=142|35=3|49=FGW|56=NEGFIXFIX1|34=235|52=20161010-08:45:48.109|1128=9|45=234|58=Value is incorrect (out of range) for this tag|371=126|372=D|373=5|10=178|8=FIXT.1.1|9=224|35=D|34=235|49=NEGFIXFIX1|56=FGW|52=20161010-08:45:49.133|11=1476089149398|48=8033001|22=8|40=2|59=6|126=20140704-03:00:00 AM|54=1|38=500|1138=500|44=25|581=1|528=A|60=20161010-09:45:49.133|453=1|448=NEGFIXFIX1|447=D|452=76|10=064|8=FIXT.1.1|9=142|35=3|49=FGW|56=NEGFIXFIX1|34=236|52=20161010-08:45:49.182|1128=9|45=235|58=Value is incorrect (out of range) for this tag|371=126|372=D|373=5|10=182|8=FIXT.1.1|9=224|35=D|34=236|49=NEGFIXFIX1|56=FGW|52=20161010-08:45:50.199|11=1476089150450|48=8033001|22=8|40=2|59=6|126=20140704-03:00:00.01|54=1|38=500|1138=500|44=25|581=1|528=A|60=20161010-09:45:50.183|453=1|448=NEGFIXFIX1|447=D|452=76|10=016|8=FIXT.1.1|9=142|35=3|49=FGW|56=NEGFIXFIX1|34=237|52=20161010-08:45:50.236|1128=9|45=236|58=Value is incorrect (out of range) for this tag|371=126|372=D|373=5|10=176|8=FIXT.1.1|9=221|35=D|34=237|49=NEGFIXFIX1|56=FGW|52=20161010-08:45:51.260|11=1476089151529|48=8033001|22=8|40=2|59=6|126=20140732-12:00:00|54=1|38=500|1138=500|44=25|581=1|528=A|60=20161010-09:45:51.260|453=1|448=NEGFIXFIX1|447=D|452=76|10=123|8=FIXT.1.1|9=127|35=3|49=FGW|56=NEGFIXFIX1|34=238|52=20161010-08:45:51.304|1128=9|372=D|45=237|371=126|373=6|58=Incorrect data format for value|10=251|8=FIXT.1.1|9=215|35=D|34=238|49=NEGFIXFIX1|56=FGW|52=20161010-08:45:51.297|11=1476089151567|48=8033001|22=8|40=1|59=6|126=20140704-24:00:00|54=1|38=500|1138=500|581=1|528=A|60=20161010-09:45:51.296|453=1|448=NEGFIXFIX1|447=D|452=76|10=136|8=FIXT.1.1|9=127|35=3|49=FGW|56=NEGFIXFIX1|34=239|52=20161010-08:45:51.349|1128=9|372=D|45=238|371=126|373=6|58=Incorrect data format for value|10=006|8=FIXT.1.1|9=215|35=D|34=239|49=NEGFIXFIX1|56=FGW|52=20161010-08:45:51.335|11=1476089151601|48=8033001|22=8|40=1|59=6|126=20140704-12:60:00|54=1|38=500|1138=500|581=1|528=A|60=20161010-09:45:51.329|453=1|448=NEGFIXFIX1|447=D|452=76|10=119|8=FIXT.1.1|9=127|35=3|49=FGW|56=NEGFIXFIX1|34=240|52=20161010-08:45:51.399|1128=9|372=D|45=239|371=126|373=6|58=Incorrect data format for value|10=004|8=FIXT.1.1|9=215|35=D|34=240|49=NEGFIXFIX1|56=FGW|52=20161010-08:45:51.375|11=1476089151641|48=8033001|22=8|40=1|59=6|126=20140704-12:00:61|54=1|38=500|1138=500|581=1|528=A|60=20161010-09:45:51.368|453=1|448=NEGFIXFIX1|447=D|452=76|10=123|8=FIXT.1.1|9=127|35=3|49=FGW|56=NEGFIXFIX1|34=241|52=20161010-08:45:51.439|1128=9|372=D|45=240|371=126|373=6|58=Incorrect data format for value|10=248|8=FIXT.1.1|9=215|35=D|34=241|49=NEGFIXFIX1|56=FGW|52=20161010-08:45:51.431|11=1476089151704|48=8033001|22=8|40=1|59=6|126=20140700-12:00:00|54=1|38=500|1138=500|581=1|528=A|60=20161010-09:45:51.430|453=1|448=NEGFIXFIX1|447=D|452=76|10=096|8=FIXT.1.1|9=127|35=3|49=FGW|56=NEGFIXFIX1|34=242|52=20161010-08:45:51.484|1128=9|372=D|45=241|371=126|373=6|58=Incorrect data format for value|10=250|8=FIXT.1.1|9=215|35=D|34=242|49=NEGFIXFIX1|56=FGW|52=20161010-08:45:51.464|11=1476089151733|48=8033001|22=8|40=1|59=6|126=20140004-12:00:00|54=1|38=500|1138=500|581=1|528=A|60=20161010-09:45:51.457|453=1|448=NEGFIXFIX1|447=D|452=76|10=111|8=FIXT.1.1|9=127|35=3|49=FGW|56=NEGFIXFIX1|34=243|52=20161010-08:45:51.529|1128=9|372=D|45=242|371=126|373=6|58=Incorrect data format for value|10=252|8=FIXT.1.1|9=220|35=D|34=243|49=NEGFIXFIX1|56=FGW|52=20161010-08:45:51.507|11=1476089151777|48=8033001|22=8|40=1|59=6|126=20140704-12:00:00.0001|54=1|38=500|1138=500|581=1|528=A|60=20161010-09:45:51.500|453=1|448=NEGFIXFIX1|447=D|452=76|10=093|8=FIXT.1.1|9=142|35=3|49=FGW|56=NEGFIXFIX1|34=244|52=20161010-08:45:51.572|1128=9|45=243|58=Value is incorrect (out of range) for this tag|371=126|372=D|373=5|10=176|8=FIXT.1.1|9=206|35=D|34=244|49=NEGFIXFIX1|56=FGW|52=20161010-08:45:52.602|11=1476089152867|48=8033001|22=8|40=1|59=6|432=20141304|54=1|38=500|1138=500|581=1|528=A|60=20161010-09:45:52.587|453=1|448=NEGFIXFIX1|447=D|452=76|10=186|8=FIXT.1.1|9=127|35=3|49=FGW|56=NEGFIXFIX1|34=245|52=20161010-08:45:52.640|1128=9|372=D|45=244|371=432|373=6|58=Incorrect data format for value|10=251|8=FIXT.1.1|9=214|35=D|34=245|49=NEGFIXFIX1|56=FGW|52=20161010-08:45:52.619|11=1476089152900|48=8033001|22=8|40=1|59=6|432=1404435661|54=1|38=500|1138=500|99=25|581=1|528=A|60=20161010-09:45:52.619|453=1|448=NEGFIXFIX1|447=D|452=76|10=060|8=FIXT.1.1|9=142|35=3|49=FGW|56=NEGFIXFIX1|34=246|52=20161010-08:45:52.680|1128=9|45=245|58=Value is incorrect (out of range) for this tag|371=432|372=D|373=5|10=181|8=FIXT.1.1|9=215|35=D|34=246|49=NEGFIXFIX1|56=FGW|52=20161010-08:45:53.685|11=1476089153969|48=8033001|22=8|40=1|59=6|432=20140704-12:00:00|54=2|38=500|1138=500|581=1|528=A|60=20161010-09:45:53.685|453=1|448=NEGFIXFIX1|447=D|452=76|10=148|8=FIXT.1.1|9=142|35=3|49=FGW|56=NEGFIXFIX1|34=247|52=20161010-08:45:53.745|1128=9|45=246|58=Value is incorrect (out of range) for this tag|371=432|372=D|373=5|10=186|8=FIXT.1.1|9=206|35=D|34=247|49=NEGFIXFIX1|56=FGW|52=20161010-08:45:54.755|11=1476089155036|48=8033001|22=8|40=1|59=6|432=12:00:00|54=2|38=500|1138=500|581=1|528=A|60=20161010-09:45:54.748|453=1|448=NEGFIXFIX1|447=D|452=76|10=201|8=FIXT.1.1|9=127|35=3|49=FGW|56=NEGFIXFIX1|34=248|52=20161010-08:45:54.819|1128=9|372=D|45=247|371=432|373=6|58=Incorrect data format for value|10=011|8=FIXT.1.1|9=211|35=D|34=248|49=NEGFIXFIX1|56=FGW|52=20161010-08:45:54.797|11=1476089155078|48=8033001|22=8|40=2|59=6|432=7042014|54=1|38=500|1138=500|44=25|581=1|528=A|60=20161010-09:45:54.789|453=1|448=NEGFIXFIX1|447=D|452=76|10=175|8=FIXT.1.1|9=127|35=3|49=FGW|56=NEGFIXFIX1|34=249|52=20161010-08:45:54.861|1128=9|372=D|45=248|371=432|373=6|58=Incorrect data format for value|10=010|8=FIXT.1.1|9=213|35=D|34=249|49=NEGFIXFIX1|56=FGW|52=20161010-08:45:54.838|11=1476089155120|48=8033001|22=8|40=2|59=6|432=100010101|54=1|38=500|1138=500|44=25|581=1|528=A|60=20161010-09:45:54.830|453=1|448=NEGFIXFIX1|447=D|452=76|10=231|8=FIXT.1.1|9=142|35=3|49=FGW|56=NEGFIXFIX1|34=250|52=20161010-08:45:54.902|1128=9|45=249|58=Value is incorrect (out of range) for this tag|371=432|372=D|373=5|10=179|8=FIXT.1.1|9=212|35=D|34=250|49=NEGFIXFIX1|56=FGW|52=20161010-08:45:55.905|11=1476089156190|48=8033001|22=8|40=2|59=6|432=20140732|54=1|38=500|1138=500|44=25|581=1|528=A|60=20161010-09:45:55.897|453=1|448=NEGFIXFIX1|447=D|452=76|10=207|8=FIXT.1.1|9=127|35=3|49=FGW|56=NEGFIXFIX1|34=251|52=20161010-08:45:55.970|1128=9|372=D|45=250|371=432|373=6|58=Incorrect data format for value|10=254|8=FIXT.1.1|9=206|35=D|34=251|49=NEGFIXFIX1|56=FGW|52=20161010-08:45:55.961|11=1476089156255|48=8033001|22=8|40=1|59=6|432=20140700|54=1|38=500|1138=500|581=1|528=A|60=20161010-09:45:55.961|453=1|448=NEGFIXFIX1|447=D|452=76|10=188|8=FIXT.1.1|9=127|35=3|49=FGW|56=NEGFIXFIX1|34=252|52=20161010-08:45:56.010|1128=9|372=D|45=251|371=432|373=6|58=Incorrect data format for value|10=242|8=FIXT.1.1|9=206|35=D|34=252|49=NEGFIXFIX1|56=FGW|52=20161010-08:45:56.004|11=1476089156292|48=8033001|22=8|40=1|59=6|432=20140004|54=1|38=500|1138=500|581=1|528=A|60=20161010-09:45:55.997|453=1|448=NEGFIXFIX1|447=D|452=76|10=185|8=FIXT.1.1|9=127|35=3|49=FGW|56=NEGFIXFIX1|34=253|52=20161010-08:45:56.069|1128=9|372=D|45=252|371=432|373=6|58=Incorrect data format for value|10=002|8=FIXT.1.1|9=212|35=D|34=253|49=NEGFIXFIX1|56=FGW|52=20161010-08:45:56.044|11=1476089156333|48=8033001|22=8|40=2|59=6|432=YYYYMMDD|54=1|38=500|1138=500|44=25|581=1|528=A|60=20161010-09:45:56.037|453=1|448=NEGFIXFIX1|447=D|452=76|10=178|8=FIXT.1.1|9=127|35=3|49=FGW|56=NEGFIXFIX1|34=254|52=20161010-08:45:56.109|1128=9|372=D|45=253|371=432|373=6|58=Incorrect data format for value|10=255|8=FIXT.1.1|9=211|35=D|34=254|49=NEGFIXFIX1|56=FGW|52=20161010-08:45:56.085|11=1476089156375|48=8033001|22=8|40=2|59=6|432=2014111|54=1|38=500|1138=500|44=25|581=1|528=A|60=20161010-09:45:56.078|453=1|448=NEGFIXFIX1|447=D|452=76|10=150|8=FIXT.1.1|9=127|35=3|49=FGW|56=NEGFIXFIX1|34=255|52=20161010-08:45:56.150|1128=9|372=D|45=254|371=432|373=6|58=Incorrect data format for value|10=253|8=FIXT.1.1|9=220|35=D|34=255|49=NEGFIXFIX1|56=FGW|52=20161010-08:45:56.149|11=1476089156431|48=8033001|22=8|40=2|59=6|126=20140704-12:00:0|54=1|38=500|1138=500|44=25|581=1|528=A|60=20161010-09:45:56.133|453=1|448=NEGFIXFIX1|447=D|452=76|10=085|8=FIXT.1.1|9=127|35=3|49=FGW|56=NEGFIXFIX1|34=256|52=20161010-08:45:56.189|1128=9|372=D|45=255|371=126|373=6|58=Incorrect data format for value|10=011|8=FIXT.1.1|9=225|35=D|34=256|49=NEGFIXFIX1|56=FGW|52=20161010-08:45:56.166|11=1476089156465|48=8033001|22=8|40=2|59=6|126=20140704-12:00:00.000|54=1|38=500|1138=500|44=25|581=1|528=A|60=20161010-09:45:56.166|453=1|448=NEGFIXFIX1|447=D|452=76|10=085|8=FIXT.1.1|9=142|35=3|49=FGW|56=NEGFIXFIX1|34=257|52=20161010-08:45:56.228|1128=9|45=256|58=Value is incorrect (out of range) for this tag|371=126|372=D|373=5|10=187|8=FIXT.1.1|9=199|35=D|34=257|49=NEGFIXFIX1|56=FGW|52=20161010-08:45:57.252|11=1476089157547|48=8033001|22=8|40=2|59=6|54=1|38=500|1138=500|44=25|581=1|528=A|60=20161010-09:45:57.245|453=1|448=NEGFIXFIX1|447=D|452=76|10=115|8=FIXT.1.1|9=161|35=j|49=FGW|56=NEGFIXFIX1|34=258|52=20161010-08:45:57.317|1128=9|45=257|372=D|379=1476089157547|380=5|58=Expire Time or Expire Date required for TIF = 6|371=126|10=002|8=FIXT.1.1|9=234|35=D|34=258|49=NEGFIXFIX1|56=FGW|52=20161010-08:45:57.313|11=1476089157607|48=8033001|22=8|40=2|59=6|126=20161010-11:45:57|432=20161011|54=1|38=500|1138=500|44=25|581=1|528=A|60=20161010-09:45:57.304|453=1|448=NEGFIXFIX1|447=D|452=76|10=254|8=FIXT.1.1|9=169|35=j|49=FGW|56=NEGFIXFIX1|34=259|52=20161010-08:45:57.377|1128=9|45=258|372=D|379=1476089157607|380=0|58=Both Expiry Time and Expiry Date specified on GTD order|371=432|10=151|8=FIXT.1.1|9=225|35=D|34=259|49=NEGFIXFIX1|56=FGW|52=20161010-08:45:57.361|11=1476089157658|48=8033001|22=8|40=2|59=6|432=20140407|432=20140408|54=1|38=500|1138=500|44=25|581=1|528=A|60=20161010-09:45:57.353|453=1|448=NEGFIXFIX1|447=D|452=76|10=066|8=FIXT.1.1|9=123|35=3|49=FGW|56=NEGFIXFIX1|34=260|52=20161010-08:45:57.425|1128=9|45=259|58=Tag appears more than once|371=432|372=D|373=13|10=009|8=FIXT.1.1|9=243|35=D|34=260|49=NEGFIXFIX1|56=FGW|52=20161010-08:45:57.406|11=1476089157704|48=8033001|22=8|40=2|59=6|126=20140407-12:00:00|126=20140407-13:00:00|54=1|38=500|1138=500|44=25|581=1|528=A|60=20161010-09:45:57.398|453=1|448=NEGFIXFIX1|447=D|452=76|10=195|8=FIXT.1.1|9=123|35=3|49=FGW|56=NEGFIXFIX1|34=261|52=20161010-08:45:57.470|1128=9|45=260|58=Tag appears more than once|371=126|372=D|373=13|10=002|8=FIXT.1.1|9=144|35=q|34=261|49=NEGFIXFIX1|56=FGW|52=20161010-08:45:57.970|11=1476089158276|530=7|60=20161010-09:45:57.965|1461=1|1462=NEGFIXFIX1|1463=D|1464=76|10=231|8=FIXT.1.1|9=125|35=r|49=FGW|56=NEGFIXFIX1|34=262|52=20161010-08:45:58.037|1128=9|1369=O132zNg_57|11=1476089158276|1180=1|30001=1|530=7|531=7|10=247|8=FIXT.1.1|9=116|35=Z|34=262|49=NEGFIXFIX1|56=FGW|52=20161010-08:45:58.018|1166=1476089158313|298=4|1461=1|1462=NEGFIX|1463=D|1464=1|10=002|8=FIXT.1.1|9=167|35=b|49=FGW|56=NEGFIXFIX1|34=263|52=20161010-08:45:58.085|1128=9|117=1476089158313|298=4|297=